{
  "_format": "hh-sol-artifact-1",
  "contractName": "MemeMint",
  "sourceName": "contracts/MemeMint.sol",
  "abi": [
    {
      "inputs": [],
      "stateMutability": "nonpayable",
      "type": "constructor"
    },
    {
      "inputs": [],
      "name": "InitializationFailed",
      "type": "error"
    },
    {
      "inputs": [],
      "name": "InsufficientPayment",
      "type": "error"
    },
    {
      "inputs": [],
      "name": "InvalidCountRange",
      "type": "error"
    },
    {
      "inputs": [],
      "name": "InvalidFunctionCall",
      "type": "error"
    },
    {
      "inputs": [],
      "name": "InvalidImplementation",
      "type": "error"
    },
    {
      "inputs": [],
      "name": "InvalidLeaderboardAddress",
      "type": "error"
    },
    {
      "inputs": [],
      "name": "InvalidMintCount",
      "type": "error"
    },
    {
      "inputs": [],
      "name": "InvalidMintFee",
      "type": "error"
    },
    {
      "inputs": [],
      "name": "InvalidPositionRange",
      "type": "error"
    },
    {
      "inputs": [],
      "name": "InvalidUserAddress",
      "type": "error"
    },
    {
      "inputs": [],
      "name": "NoFundsToWithdraw",
      "type": "error"
    },
    {
      "inputs": [],
      "name": "PositionNotFilled",
      "type": "error"
    },
    {
      "inputs": [],
      "name": "RateLimitExceeded",
      "type": "error"
    },
    {
      "inputs": [],
      "name": "RefundFailed",
      "type": "error"
    },
    {
      "inputs": [],
      "name": "TransferFailed",
      "type": "error"
    },
    {
      "inputs": [],
      "name": "ZeroAddress",
      "type": "error"
    },
    {
      "anonymous": false,
      "inputs": [
        {
          "indexed": false,
          "internalType": "address",
          "name": "previousAdmin",
          "type": "address"
        },
        {
          "indexed": false,
          "internalType": "address",
          "name": "newAdmin",
          "type": "address"
        }
      ],
      "name": "AdminChanged",
      "type": "event"
    },
    {
      "anonymous": false,
      "inputs": [
        {
          "indexed": true,
          "internalType": "address",
          "name": "beacon",
          "type": "address"
        }
      ],
      "name": "BeaconUpgraded",
      "type": "event"
    },
    {
      "anonymous": false,
      "inputs": [
        {
          "indexed": true,
          "internalType": "address",
          "name": "owner",
          "type": "address"
        }
      ],
      "name": "ContractPaused",
      "type": "event"
    },
    {
      "anonymous": false,
      "inputs": [
        {
          "indexed": true,
          "internalType": "address",
          "name": "owner",
          "type": "address"
        }
      ],
      "name": "ContractUnpaused",
      "type": "event"
    },
    {
      "anonymous": false,
      "inputs": [
        {
          "indexed": true,
          "internalType": "address",
          "name": "owner",
          "type": "address"
        },
        {
          "indexed": true,
          "internalType": "uint256",
          "name": "amount",
          "type": "uint256"
        }
      ],
      "name": "EmergencyWithdraw",
      "type": "event"
    },
    {
      "anonymous": false,
      "inputs": [
        {
          "indexed": true,
          "internalType": "address",
          "name": "owner",
          "type": "address"
        },
        {
          "indexed": true,
          "internalType": "uint256",
          "name": "amount",
          "type": "uint256"
        }
      ],
      "name": "FundsWithdrawn",
      "type": "event"
    },
    {
      "anonymous": false,
      "inputs": [
        {
          "indexed": false,
          "internalType": "uint8",
          "name": "version",
          "type": "uint8"
        }
      ],
      "name": "Initialized",
      "type": "event"
    },
    {
      "anonymous": false,
      "inputs": [
        {
          "indexed": true,
          "internalType": "address",
          "name": "owner",
          "type": "address"
        },
        {
          "indexed": true,
          "internalType": "uint256",
          "name": "mintFee",
          "type": "uint256"
        }
      ],
      "name": "Initialized",
      "type": "event"
    },
    {
      "anonymous": false,
      "inputs": [
        {
          "indexed": true,
          "internalType": "address",
          "name": "user",
          "type": "address"
        },
        {
          "indexed": true,
          "internalType": "uint256",
          "name": "feePaid",
          "type": "uint256"
        }
      ],
      "name": "MemeMinted",
      "type": "event"
    },
    {
      "anonymous": false,
      "inputs": [
        {
          "indexed": true,
          "internalType": "uint256",
          "name": "oldFee",
          "type": "uint256"
        },
        {
          "indexed": true,
          "internalType": "uint256",
          "name": "newFee",
          "type": "uint256"
        }
      ],
      "name": "MintFeeUpdated",
      "type": "event"
    },
    {
      "anonymous": false,
      "inputs": [
        {
          "indexed": true,
          "internalType": "address",
          "name": "previousOwner",
          "type": "address"
        },
        {
          "indexed": true,
          "internalType": "address",
          "name": "newOwner",
          "type": "address"
        }
      ],
      "name": "OwnershipTransferStarted",
      "type": "event"
    },
    {
      "anonymous": false,
      "inputs": [
        {
          "indexed": true,
          "internalType": "address",
          "name": "previousOwner",
          "type": "address"
        },
        {
          "indexed": true,
          "internalType": "address",
          "name": "newOwner",
          "type": "address"
        }
      ],
      "name": "OwnershipTransferred",
      "type": "event"
    },
    {
      "anonymous": false,
      "inputs": [
        {
          "indexed": false,
          "internalType": "address",
          "name": "account",
          "type": "address"
        }
      ],
      "name": "Paused",
      "type": "event"
    },
    {
      "anonymous": false,
      "inputs": [
        {
          "indexed": true,
          "internalType": "address",
          "name": "user",
          "type": "address"
        },
        {
          "indexed": true,
          "internalType": "uint256",
          "name": "day",
          "type": "uint256"
        }
      ],
      "name": "RateLimitHit",
      "type": "event"
    },
    {
      "anonymous": false,
      "inputs": [
        {
          "indexed": false,
          "internalType": "address",
          "name": "account",
          "type": "address"
        }
      ],
      "name": "Unpaused",
      "type": "event"
    },
    {
      "anonymous": false,
      "inputs": [
        {
          "indexed": true,
          "internalType": "address",
          "name": "implementation",
          "type": "address"
        }
      ],
      "name": "Upgraded",
      "type": "event"
    },
    {
      "stateMutability": "payable",
      "type": "fallback"
    },
    {
      "inputs": [],
      "name": "acceptLeaderboardOwnership",
      "outputs": [],
      "stateMutability": "nonpayable",
      "type": "function"
    },
    {
      "inputs": [],
      "name": "acceptOwnership",
      "outputs": [],
      "stateMutability": "nonpayable",
      "type": "function"
    },
    {
      "inputs": [],
      "name": "emergencyWithdraw",
      "outputs": [],
      "stateMutability": "payable",
      "type": "function"
    },
    {
      "inputs": [],
      "name": "getActualMintCount",
      "outputs": [
        {
          "internalType": "uint256",
          "name": "",
          "type": "uint256"
        }
      ],
      "stateMutability": "view",
      "type": "function"
    },
    {
      "inputs": [],
      "name": "getActualRevenue",
      "outputs": [
        {
          "internalType": "uint256",
          "name": "",
          "type": "uint256"
        }
      ],
      "stateMutability": "view",
      "type": "function"
    },
    {
      "inputs": [],
      "name": "getBalance",
      "outputs": [
        {
          "internalType": "uint256",
          "name": "",
          "type": "uint256"
        }
      ],
      "stateMutability": "view",
      "type": "function"
    },
    {
      "inputs": [],
      "name": "getLeaderboardAddress",
      "outputs": [
        {
          "internalType": "address",
          "name": "",
          "type": "address"
        }
      ],
      "stateMutability": "view",
      "type": "function"
    },
    {
      "inputs": [],
      "name": "getStats",
      "outputs": [
        {
          "components": [
            {
              "internalType": "uint256",
              "name": "mints",
              "type": "uint256"
            },
            {
              "internalType": "uint256",
              "name": "revenue",
              "type": "uint256"
            },
            {
              "internalType": "uint256",
              "name": "fee",
              "type": "uint256"
            },
            {
              "internalType": "uint256",
              "name": "balance",
              "type": "uint256"
            }
          ],
          "internalType": "struct MemeMintTypes.Stats",
          "name": "stats",
          "type": "tuple"
        }
      ],
      "stateMutability": "view",
      "type": "function"
    },
    {
      "inputs": [
        {
          "internalType": "address",
          "name": "user",
          "type": "address"
        },
        {
          "internalType": "uint256",
          "name": "day",
          "type": "uint256"
        }
      ],
      "name": "getUserMintsPerDay",
      "outputs": [
        {
          "internalType": "uint256",
          "name": "",
          "type": "uint256"
        }
      ],
      "stateMutability": "view",
      "type": "function"
    },
    {
      "inputs": [
        {
          "internalType": "address",
          "name": "user",
          "type": "address"
        }
      ],
      "name": "getUserMintsToday",
      "outputs": [
        {
          "internalType": "uint256",
          "name": "",
          "type": "uint256"
        }
      ],
      "stateMutability": "view",
      "type": "function"
    },
    {
      "inputs": [
        {
          "internalType": "address",
          "name": "user",
          "type": "address"
        }
      ],
      "name": "getUserTotalMints",
      "outputs": [
        {
          "internalType": "uint256",
          "name": "",
          "type": "uint256"
        }
      ],
      "stateMutability": "view",
      "type": "function"
    },
    {
      "inputs": [
        {
          "internalType": "address",
          "name": "initialOwner",
          "type": "address"
        },
        {
          "internalType": "uint256",
          "name": "initialMintFee",
          "type": "uint256"
        }
      ],
      "name": "initialize",
      "outputs": [],
      "stateMutability": "nonpayable",
      "type": "function"
    },
    {
      "inputs": [],
      "name": "mintFee",
      "outputs": [
        {
          "internalType": "uint256",
          "name": "",
          "type": "uint256"
        }
      ],
      "stateMutability": "view",
      "type": "function"
    },
    {
      "inputs": [],
      "name": "mintMeme",
      "outputs": [],
      "stateMutability": "payable",
      "type": "function"
    },
    {
      "inputs": [],
      "name": "owner",
      "outputs": [
        {
          "internalType": "address",
          "name": "",
          "type": "address"
        }
      ],
      "stateMutability": "view",
      "type": "function"
    },
    {
      "inputs": [],
      "name": "pause",
      "outputs": [],
      "stateMutability": "payable",
      "type": "function"
    },
    {
      "inputs": [],
      "name": "paused",
      "outputs": [
        {
          "internalType": "bool",
          "name": "",
          "type": "bool"
        }
      ],
      "stateMutability": "view",
      "type": "function"
    },
    {
      "inputs": [],
      "name": "pendingOwner",
      "outputs": [
        {
          "internalType": "address",
          "name": "",
          "type": "address"
        }
      ],
      "stateMutability": "view",
      "type": "function"
    },
    {
      "inputs": [],
      "name": "proxiableUUID",
      "outputs": [
        {
          "internalType": "bytes32",
          "name": "",
          "type": "bytes32"
        }
      ],
      "stateMutability": "view",
      "type": "function"
    },
    {
      "inputs": [],
      "name": "renounceOwnership",
      "outputs": [],
      "stateMutability": "nonpayable",
      "type": "function"
    },
    {
      "inputs": [
        {
          "internalType": "address",
          "name": "user",
          "type": "address"
        }
      ],
      "name": "resetUserDailyMints",
      "outputs": [],
      "stateMutability": "nonpayable",
      "type": "function"
    },
    {
      "inputs": [
        {
          "internalType": "address",
          "name": "leaderboardAddress",
          "type": "address"
        }
      ],
      "name": "setLeaderboardAddress",
      "outputs": [],
      "stateMutability": "nonpayable",
      "type": "function"
    },
    {
      "inputs": [
        {
          "internalType": "uint256",
          "name": "newFee",
          "type": "uint256"
        }
      ],
      "name": "setMintFee",
      "outputs": [],
      "stateMutability": "payable",
      "type": "function"
    },
    {
      "inputs": [],
      "name": "totalMints",
      "outputs": [
        {
          "internalType": "uint256",
          "name": "",
          "type": "uint256"
        }
      ],
      "stateMutability": "view",
      "type": "function"
    },
    {
      "inputs": [],
      "name": "totalRevenue",
      "outputs": [
        {
          "internalType": "uint256",
          "name": "",
          "type": "uint256"
        }
      ],
      "stateMutability": "view",
      "type": "function"
    },
    {
      "inputs": [
        {
          "internalType": "address",
          "name": "newOwner",
          "type": "address"
        }
      ],
      "name": "transferOwnership",
      "outputs": [],
      "stateMutability": "nonpayable",
      "type": "function"
    },
    {
      "inputs": [],
      "name": "unpause",
      "outputs": [],
      "stateMutability": "payable",
      "type": "function"
    },
    {
      "inputs": [
        {
          "internalType": "address",
          "name": "newImplementation",
          "type": "address"
        }
      ],
      "name": "upgradeTo",
      "outputs": [],
      "stateMutability": "nonpayable",
      "type": "function"
    },
    {
      "inputs": [
        {
          "internalType": "address",
          "name": "newImplementation",
          "type": "address"
        },
        {
          "internalType": "bytes",
          "name": "data",
          "type": "bytes"
        }
      ],
      "name": "upgradeToAndCall",
      "outputs": [],
      "stateMutability": "payable",
      "type": "function"
    },
    {
      "inputs": [],
      "name": "withdraw",
      "outputs": [],
      "stateMutability": "payable",
      "type": "function"
    },
    {
      "stateMutability": "payable",
      "type": "receive"
    }
  ],
  "bytecode": "0x60a06040523060805234801561001457600080fd5b5061001d610022565b6100e1565b600054610100900460ff161561008e5760405162461bcd60e51b815260206004820152602760248201527f496e697469616c697a61626c653a20636f6e747261637420697320696e697469604482015266616c697a696e6760c81b606482015260840160405180910390fd5b60005460ff908116146100df576000805460ff191660ff9081179091556040519081527f7f26b83ff96e1f2b6a682f133852f6798a09c465da95921460cefb38474024989060200160405180910390a15b565b608051611e3161011860003960008181610592015281816105db01528181610793015281816107d301526108660152611e316000f3fe6080604052600436106101d15760003560e01c80638da5cb5b116100f7578063cd6dc68711610095578063e6dde49011610064578063e6dde490146104ef578063e9308f3a146104f7578063eddd0d9c14610517578063f2fde38b1461052a57610203565b8063cd6dc6871461048a578063d8d1ce14146104aa578063db2e21bc146104c9578063e30c3978146104d157610203565b8063b1eb5a50116100d1578063b1eb5a50146103d4578063bf2d9e0b1461040b578063c59d484714610422578063c8e396f01461046a57610203565b80638da5cb5b14610373578063a88c8e23146103a5578063ae8319cb146103bf57610203565b80633f4ba83a1161016f578063647f5b921161013e578063647f5b9214610327578063715018a61461034157806379ba5097146103565780638456cb591461036b57610203565b80633f4ba83a146102d35780634f1ef286146102db57806352d1902d146102ee5780635c975abb1461030357610203565b80632dd9cb92116101ab5780632dd9cb921461026b5780633659cfe61461028b5780633c60fc7b146102ab5780633ccfd60b146102cb57610203565b806312065fe01461021c57806313966db51461023e5780631f21bfbf1461025457610203565b36610203576097546001600160a01b03163314610201576040516372cdf37760e01b815260040160405180910390fd5b005b6040516372cdf37760e01b815260040160405180910390fd5b34801561022857600080fd5b50475b6040519081526020015b60405180910390f35b34801561024a57600080fd5b5061015f5461022b565b34801561026057600080fd5b5061022b6101615481565b34801561027757600080fd5b5061022b610286366004611aa9565b61054a565b34801561029757600080fd5b506102016102a6366004611aa9565b610588565b3480156102b757600080fd5b5061022b6102c6366004611ac4565b610670565b61020161069c565b61020161073c565b6102016102e9366004611b04565b610789565b3480156102fa57600080fd5b5061022b610859565b34801561030f57600080fd5b5061012d5460ff166040519015158152602001610235565b34801561033357600080fd5b50610162546000190161022b565b34801561034d57600080fd5b5061020161090c565b34801561036257600080fd5b5061020161091e565b610201610995565b34801561037f57600080fd5b506097546001600160a01b03165b6040516001600160a01b039091168152602001610235565b3480156103b157600080fd5b50610161546000190161022b565b3480156103cb57600080fd5b506102016109e2565b3480156103e057600080fd5b5061022b6103ef366004611aa9565b6001600160a01b03166000908152610164602052604090205490565b34801561041757600080fd5b5061022b6101625481565b34801561042e57600080fd5b50610437610afa565b60405161023591908151815260208083015190820152604080830151908201526060918201519181019190915260800190565b34801561047657600080fd5b50610201610485366004611aa9565b610b4d565b34801561049657600080fd5b506102016104a5366004611ac4565b610b91565b3480156104b657600080fd5b50610163546001600160a01b031661038d565b610201610d70565b3480156104dd57600080fd5b5060c9546001600160a01b031661038d565b610201610e0e565b34801561050357600080fd5b50610201610512366004611aa9565b611067565b610201610525366004611bce565b6110b9565b34801561053657600080fd5b50610201610545366004611aa9565b611116565b60008061055a6201518042611bfd565b6001600160a01b03909316600090815261016060209081526040808320958352949052929092205492915050565b6001600160a01b037f00000000000000000000000000000000000000000000000000000000000000001630036105d95760405162461bcd60e51b81526004016105d090611c1f565b60405180910390fd5b7f00000000000000000000000000000000000000000000000000000000000000006001600160a01b0316610622600080516020611db5833981519152546001600160a01b031690565b6001600160a01b0316146106485760405162461bcd60e51b81526004016105d090611c6b565b61065181611187565b6040805160008082526020820190925261066d918391906111e1565b50565b6001600160a01b0382166000908152610160602090815260408083208484529091529020545b92915050565b6106a461134c565b6106ac6113a5565b4760008190036106cf576040516367e3990d60e01b815260040160405180910390fd5b60006106e36097546001600160a01b031690565b90506106f86001600160a01b038216836113ff565b60405182906001600160a01b038316907feaff4b37086828766ad3268786972c0cd24259d4c87a80f9d3963a3c3d999b0d90600090a3505061073a600160fb55565b565b6107446113a5565b61074c61134c565b61075461151f565b60405133907f5b65b0c1363b3003db9bcc5e1fd8805a6d6bf5bf6dc9d3431ee4494cd7d1176690600090a261073a600160fb55565b6001600160a01b037f00000000000000000000000000000000000000000000000000000000000000001630036107d15760405162461bcd60e51b81526004016105d090611c1f565b7f00000000000000000000000000000000000000000000000000000000000000006001600160a01b031661081a600080516020611db5833981519152546001600160a01b031690565b6001600160a01b0316146108405760405162461bcd60e51b81526004016105d090611c6b565b61084982611187565b610855828260016111e1565b5050565b6000306001600160a01b037f000000000000000000000000000000000000000000000000000000000000000016146108f95760405162461bcd60e51b815260206004820152603860248201527f555550535570677261646561626c653a206d757374206e6f742062652063616c60448201527f6c6564207468726f7567682064656c656761746563616c6c000000000000000060648201526084016105d0565b50600080516020611db583398151915290565b6109146113a5565b61073a6000611572565b60c95433906001600160a01b0316811461098c5760405162461bcd60e51b815260206004820152602960248201527f4f776e61626c6532537465703a2063616c6c6572206973206e6f7420746865206044820152683732bb9037bbb732b960b91b60648201526084016105d0565b61066d81611572565b61099d6113a5565b6109a561134c565b6109ad61158b565b60405133907f81990fd9a5c552b8e3677917d8a03c07678f0d2cb68f88b634aca2022e9bd19f90600090a261073a600160fb55565b6109ea6113a5565b610163546001600160a01b0316610a145760405163cff0959f60e01b815260040160405180910390fd5b6101635460408051600481526024810182526020810180516001600160e01b03166379ba509760e01b17905290516000926001600160a01b031691610a5891611cdb565b6000604051808303816000865af19150503d8060008114610a95576040519150601f19603f3d011682016040523d82523d6000602084013e610a9a565b606091505b505090508061066d5760405162461bcd60e51b815260206004820152602660248201527f4661696c656420746f20616363657074206c6561646572626f617264206f776e60448201526506572736869760d41b60648201526084016105d0565b610b256040518060800160405280600081526020016000815260200160008152602001600081525090565b6101615460001990810182526101625401602082015261015f54604082015247606082015290565b610b556113a5565b6000610b646201518042611bfd565b6001600160a01b039092166000908152610160602090815260408083209483529390529182209190915550565b600054610100900460ff1615808015610bb15750600054600160ff909116105b80610bcb5750303b158015610bcb575060005460ff166001145b610c2e5760405162461bcd60e51b815260206004820152602e60248201527f496e697469616c697a61626c653a20636f6e747261637420697320616c72656160448201526d191e481a5b9a5d1a585b1a5e995960921b60648201526084016105d0565b6000805460ff191660011790558015610c51576000805461ff0019166101001790555b6001600160a01b038316610c785760405163d92e233d60e01b815260040160405180910390fd5b650f761ef61000821080610c93575067016345785d8a000082115b15610cb15760405163c288bf8f60e01b815260040160405180910390fd5b610cb96115c9565b610cc16115f8565b610cc961161f565b610cd161164e565b610cda83611572565b600161016181905561016255610cef8261167d565b60405182906001600160a01b038516907f25ff68dd81b34665b5ba7e553ee5511bf6812e12adb4a7e2c0d9e26b3099ce7990600090a38015610d6b576000805461ff0019169055604051600181527f7f26b83ff96e1f2b6a682f133852f6798a09c465da95921460cefb38474024989060200160405180910390a15b505050565b610d7861134c565b610d806113a5565b476000819003610da3576040516367e3990d60e01b815260040160405180910390fd5b6000610db76097546001600160a01b031690565b9050610dcc6001600160a01b038216836113ff565b60405182906001600160a01b038316907f5fafa99d0643513820be26656b45130b01e1c03062e1266bf36f88cbd3bd969590600090a3505061073a600160fb55565b610e1661134c565b610e1e6116c9565b61015f5434811115610e435760405163cd1c886760e01b815260040160405180910390fd5b6000610e526201518042611bfd565b9050610e6060016050611cf7565b336000908152610160602090815260408083208584529091529020541115610ec857604051819033907fd4669018ec120023a55a64c4eb585368d50758f9e4a417e0d4b1ce900fb38a1490600090a360405163a74c1c5f60e01b815260040160405180910390fd5b6101618054600190810190915561016280548401905533600090815261016060209081526040808320858452909152902080549091019055610163546001600160a01b031615610f9e576101635433600081815261016460205260409020546001600160a01b039092169163b8f883f99190610f45906001611d0a565b6040516001600160e01b031960e085901b1681526001600160a01b0390921660048301526024820152604401600060405180830381600087803b158015610f8b57600080fd5b505af1925050508015610f9c575060015b505b33600090815261016460205260409020805460010190553482101561102e576040513483900390600090339083908381818185875af1925050503d8060008114611004576040519150601f19603f3d011682016040523d82523d6000602084013e611009565b606091505b505090508061102b57604051633c31275160e21b815260040160405180910390fd5b50505b604051829033907f48dc2aeea2a01c56706a90dc93cbd9fe7e1783b9c475708d49ea0b7c579ddc9d90600090a3505061073a600160fb55565b61106f6113a5565b6001600160a01b0381166110965760405163cff0959f60e01b815260040160405180910390fd5b61016380546001600160a01b0319166001600160a01b0392909216919091179055565b6110c161134c565b6110c96113a5565b61015f546110d68261167d565b81811461110b57604051829082907f7864bf708cae822050e5f50960a0de31bd6fe7620a8f67a48582fb95f29c114a90600090a35b5061066d600160fb55565b61111e6113a5565b60c980546001600160a01b0383166001600160a01b0319909116811790915561114f6097546001600160a01b031690565b6001600160a01b03167f38d16b8cac22d99fc7c124b9cd0de2d3fa1faef420bfe791d8c362d765e2270060405160405180910390a350565b61118f6113a5565b6001600160a01b0381166111b65760405163d92e233d60e01b815260040160405180910390fd5b806001600160a01b03163b60000361066d5760405163340aafcd60e11b815260040160405180910390fd5b7f4910fdfa16fed3260ed0e7147f7cc6da11a60208b5b9406d12a635614ffd91435460ff161561121457610d6b83611710565b826001600160a01b03166352d1902d6040518163ffffffff1660e01b8152600401602060405180830381865afa92505050801561126e575060408051601f3d908101601f1916820190925261126b91810190611d1d565b60015b6112d15760405162461bcd60e51b815260206004820152602e60248201527f45524331393637557067726164653a206e657720696d706c656d656e7461746960448201526d6f6e206973206e6f74205555505360901b60648201526084016105d0565b600080516020611db583398151915281146113405760405162461bcd60e51b815260206004820152602960248201527f45524331393637557067726164653a20756e737570706f727465642070726f786044820152681a58589b195555525160ba1b60648201526084016105d0565b50610d6b8383836117ac565b600260fb540361139e5760405162461bcd60e51b815260206004820152601f60248201527f5265656e7472616e637947756172643a207265656e7472616e742063616c6c0060448201526064016105d0565b600260fb55565b6097546001600160a01b0316331461073a5760405162461bcd60e51b815260206004820181905260248201527f4f776e61626c653a2063616c6c6572206973206e6f7420746865206f776e657260448201526064016105d0565b8047101561144f5760405162461bcd60e51b815260206004820152601d60248201527f416464726573733a20696e73756666696369656e742062616c616e636500000060448201526064016105d0565b6000826001600160a01b03168260405160006040518083038185875af1925050503d806000811461149c576040519150601f19603f3d011682016040523d82523d6000602084013e6114a1565b606091505b5050905080610d6b5760405162461bcd60e51b815260206004820152603a60248201527f416464726573733a20756e61626c6520746f2073656e642076616c75652c207260448201527f6563697069656e74206d6179206861766520726576657274656400000000000060648201526084016105d0565b600160fb55565b6115276117d7565b61012d805460ff191690557f5db9ee0a495bf2e6ff9c91a7834c1ba4fdd244a5e8aa4e537bd38aeae4b073aa335b6040516001600160a01b03909116815260200160405180910390a1565b60c980546001600160a01b031916905561066d81611821565b6115936116c9565b61012d805460ff191660011790557f62e78cea01bee320cd4e420270b5ea74000d11b0c9f74754ebdbfc544b05a2586115553390565b600054610100900460ff166115f05760405162461bcd60e51b81526004016105d090611d36565b61073a611873565b600054610100900460ff1661073a5760405162461bcd60e51b81526004016105d090611d36565b600054610100900460ff166116465760405162461bcd60e51b81526004016105d090611d36565b61073a6118a3565b600054610100900460ff166116755760405162461bcd60e51b81526004016105d090611d36565b61073a6118ca565b650f761ef61000811080611698575067016345785d8a000081115b156116b65760405163c288bf8f60e01b815260040160405180910390fd5b8061015f54036116c35750565b61015f55565b61012d5460ff161561073a5760405162461bcd60e51b815260206004820152601060248201526f14185d5cd8589b194e881c185d5cd95960821b60448201526064016105d0565b6001600160a01b0381163b61177d5760405162461bcd60e51b815260206004820152602d60248201527f455243313936373a206e657720696d706c656d656e746174696f6e206973206e60448201526c1bdd08184818dbdb9d1c9858dd609a1b60648201526084016105d0565b600080516020611db583398151915280546001600160a01b0319166001600160a01b0392909216919091179055565b6117b5836118fe565b6000825111806117c25750805b15610d6b576117d1838361193e565b50505050565b61012d5460ff1661073a5760405162461bcd60e51b815260206004820152601460248201527314185d5cd8589b194e881b9bdd081c185d5cd95960621b60448201526064016105d0565b609780546001600160a01b038381166001600160a01b0319831681179093556040519116919082907f8be0079c531659141344cd1fd0a4f28419497f9722a3daafe3b4186f6b6457e090600090a35050565b600054610100900460ff1661189a5760405162461bcd60e51b81526004016105d090611d36565b61073a33611572565b600054610100900460ff166115185760405162461bcd60e51b81526004016105d090611d36565b600054610100900460ff166118f15760405162461bcd60e51b81526004016105d090611d36565b61012d805460ff19169055565b61190781611710565b6040516001600160a01b038216907fbc7cd75a20ee27fd9adebab32041f755214dbc6bffa90cc0225b39da2e5c2d3b90600090a250565b60606119638383604051806060016040528060278152602001611dd56027913961196a565b9392505050565b6060600080856001600160a01b0316856040516119879190611cdb565b600060405180830381855af49150503d80600081146119c2576040519150601f19603f3d011682016040523d82523d6000602084013e6119c7565b606091505b50915091506119d8868383876119e2565b9695505050505050565b60608315611a51578251600003611a4a576001600160a01b0385163b611a4a5760405162461bcd60e51b815260206004820152601d60248201527f416464726573733a2063616c6c20746f206e6f6e2d636f6e747261637400000060448201526064016105d0565b5081611a5b565b611a5b8383611a63565b949350505050565b815115611a735781518083602001fd5b8060405162461bcd60e51b81526004016105d09190611d81565b80356001600160a01b0381168114611aa457600080fd5b919050565b600060208284031215611abb57600080fd5b61196382611a8d565b60008060408385031215611ad757600080fd5b611ae083611a8d565b946020939093013593505050565b634e487b7160e01b600052604160045260246000fd5b60008060408385031215611b1757600080fd5b611b2083611a8d565b9150602083013567ffffffffffffffff811115611b3c57600080fd5b8301601f81018513611b4d57600080fd5b803567ffffffffffffffff811115611b6757611b67611aee565b604051601f8201601f19908116603f0116810167ffffffffffffffff81118282101715611b9657611b96611aee565b604052818152828201602001871015611bae57600080fd5b816020840160208301376000602083830101528093505050509250929050565b600060208284031215611be057600080fd5b5035919050565b634e487b7160e01b600052601160045260246000fd5b600082611c1a57634e487b7160e01b600052601260045260246000fd5b500490565b6020808252602c908201527f46756e6374696f6e206d7573742062652063616c6c6564207468726f7567682060408201526b19195b1959d85d1958d85b1b60a21b606082015260800190565b6020808252602c908201527f46756e6374696f6e206d7573742062652063616c6c6564207468726f7567682060408201526b6163746976652070726f787960a01b606082015260800190565b60005b83811015611cd2578181015183820152602001611cba565b50506000910152565b60008251611ced818460208701611cb7565b9190910192915050565b8181038181111561069657610696611be7565b8082018082111561069657610696611be7565b600060208284031215611d2f57600080fd5b5051919050565b6020808252602b908201527f496e697469616c697a61626c653a20636f6e7472616374206973206e6f74206960408201526a6e697469616c697a696e6760a81b606082015260800190565b6020815260008251806020840152611da0816040850160208701611cb7565b601f01601f1916919091016040019291505056fe360894a13ba1a3210667c828492db98dca3e2076cc3735a920a3ca505d382bbc416464726573733a206c6f772d6c6576656c2064656c65676174652063616c6c206661696c6564a2646970667358221220294affe42d12b7954aa16cc4d3f1d913af1f64ddae2f9e46cc29532679556f1e64736f6c634300081c0033",
  "linkReferences": {},
  "deployedLinkReferences": {}
}