{
  "_format": "hh-sol-artifact-1",
  "contractName": "Mememint",
  "sourceName": "contracts/MemeMint.sol",
  "abi": [
    {
      "inputs": [
        {
          "internalType": "address",
          "name": "_treasury",
          "type": "address"
        }
      ],
      "stateMutability": "nonpayable",
      "type": "constructor"
    },
    {
      "anonymous": false,
      "inputs": [
        {
          "indexed": false,
          "internalType": "uint256",
          "name": "newFee",
          "type": "uint256"
        }
      ],
      "name": "FeeUpdated",
      "type": "event"
    },
    {
      "anonymous": false,
      "inputs": [
        {
          "indexed": true,
          "internalType": "address",
          "name": "user",
          "type": "address"
        },
        {
          "indexed": false,
          "internalType": "string",
          "name": "templateId",
          "type": "string"
        },
        {
          "indexed": false,
          "internalType": "string",
          "name": "topText",
          "type": "string"
        },
        {
          "indexed": false,
          "internalType": "string",
          "name": "bottomText",
          "type": "string"
        },
        {
          "indexed": false,
          "internalType": "bool",
          "name": "isFree",
          "type": "bool"
        }
      ],
      "name": "MemeGenerated",
      "type": "event"
    },
    {
      "anonymous": false,
      "inputs": [
        {
          "indexed": true,
          "internalType": "address",
          "name": "previousOwner",
          "type": "address"
        },
        {
          "indexed": true,
          "internalType": "address",
          "name": "newOwner",
          "type": "address"
        }
      ],
      "name": "OwnershipTransferred",
      "type": "event"
    },
    {
      "anonymous": false,
      "inputs": [
        {
          "indexed": true,
          "internalType": "address",
          "name": "newTreasury",
          "type": "address"
        }
      ],
      "name": "TreasuryUpdated",
      "type": "event"
    },
    {
      "inputs": [
        {
          "internalType": "address",
          "name": "user",
          "type": "address"
        }
      ],
      "name": "canGenerateFree",
      "outputs": [
        {
          "internalType": "bool",
          "name": "",
          "type": "bool"
        }
      ],
      "stateMutability": "view",
      "type": "function"
    },
    {
      "inputs": [],
      "name": "dailyFreeLimit",
      "outputs": [
        {
          "internalType": "uint256",
          "name": "",
          "type": "uint256"
        }
      ],
      "stateMutability": "view",
      "type": "function"
    },
    {
      "inputs": [
        {
          "internalType": "address",
          "name": "user",
          "type": "address"
        },
        {
          "internalType": "string",
          "name": "templateId",
          "type": "string"
        },
        {
          "internalType": "string",
          "name": "topText",
          "type": "string"
        },
        {
          "internalType": "string",
          "name": "bottomText",
          "type": "string"
        }
      ],
      "name": "generateMeme",
      "outputs": [],
      "stateMutability": "payable",
      "type": "function"
    },
    {
      "inputs": [],
      "name": "generationFee",
      "outputs": [
        {
          "internalType": "uint256",
          "name": "",
          "type": "uint256"
        }
      ],
      "stateMutability": "view",
      "type": "function"
    },
    {
      "inputs": [],
      "name": "owner",
      "outputs": [
        {
          "internalType": "address",
          "name": "",
          "type": "address"
        }
      ],
      "stateMutability": "view",
      "type": "function"
    },
    {
      "inputs": [
        {
          "internalType": "address",
          "name": "user",
          "type": "address"
        }
      ],
      "name": "playGame",
      "outputs": [],
      "stateMutability": "payable",
      "type": "function"
    },
    {
      "inputs": [],
      "name": "renounceOwnership",
      "outputs": [],
      "stateMutability": "nonpayable",
      "type": "function"
    },
    {
      "inputs": [
        {
          "internalType": "uint256",
          "name": "_fee",
          "type": "uint256"
        }
      ],
      "name": "setGenerationFee",
      "outputs": [],
      "stateMutability": "nonpayable",
      "type": "function"
    },
    {
      "inputs": [
        {
          "internalType": "address",
          "name": "_treasury",
          "type": "address"
        }
      ],
      "name": "setTreasury",
      "outputs": [],
      "stateMutability": "nonpayable",
      "type": "function"
    },
    {
      "inputs": [
        {
          "internalType": "address",
          "name": "newOwner",
          "type": "address"
        }
      ],
      "name": "transferOwnership",
      "outputs": [],
      "stateMutability": "nonpayable",
      "type": "function"
    },
    {
      "inputs": [],
      "name": "treasury",
      "outputs": [
        {
          "internalType": "address",
          "name": "",
          "type": "address"
        }
      ],
      "stateMutability": "view",
      "type": "function"
    },
    {
      "inputs": [
        {
          "internalType": "address",
          "name": "",
          "type": "address"
        },
        {
          "internalType": "uint256",
          "name": "",
          "type": "uint256"
        }
      ],
      "name": "userGenerationsPerDay",
      "outputs": [
        {
          "internalType": "uint256",
          "name": "",
          "type": "uint256"
        }
      ],
      "stateMutability": "view",
      "type": "function"
    },
    {
      "inputs": [],
      "name": "withdrawETH",
      "outputs": [],
      "stateMutability": "nonpayable",
      "type": "function"
    }
  ],
  "bytecode": "0x608060405266038d7ea4c68000600355600160045534801561002057600080fd5b50604051610bb1380380610bb183398101604081905261003f916100c1565b61004833610071565b60018055600580546001600160a01b0319166001600160a01b03929092169190911790556100f1565b600080546001600160a01b038381166001600160a01b0319831681178455604051919092169283917f8be0079c531659141344cd1fd0a4f28419497f9722a3daafe3b4186f6b6457e09190a35050565b6000602082840312156100d357600080fd5b81516001600160a01b03811681146100ea57600080fd5b9392505050565b610ab1806101006000396000f3fe6080604052600436106100c25760003560e01c80638da5cb5b1161007f578063e086e5ec11610059578063e086e5ec1461020e578063efeb06d314610223578063f0f4426014610236578063f2fde38b1461025657600080fd5b80638da5cb5b146101a2578063b38e06ce146101c0578063bed6703b146101f857600080fd5b80630566f18a146100c757806307c331cd146100f057806328f1a0e0146101055780634df31e621461012557806361d027b314610155578063715018a61461018d575b600080fd5b3480156100d357600080fd5b506100dd60035481565b6040519081526020015b60405180910390f35b6101036100fe3660046107f0565b610276565b005b34801561011157600080fd5b50610103610120366004610812565b6103f0565b34801561013157600080fd5b506101456101403660046107f0565b610433565b60405190151581526020016100e7565b34801561016157600080fd5b50600554610175906001600160a01b031681565b6040516001600160a01b0390911681526020016100e7565b34801561019957600080fd5b50610103610474565b3480156101ae57600080fd5b506000546001600160a01b0316610175565b3480156101cc57600080fd5b506100dd6101db36600461082b565b600260209081526000928352604080842090915290825290205481565b34801561020457600080fd5b506100dd60045481565b34801561021a57600080fd5b50610103610488565b6101036102313660046108fa565b6104ca565b34801561024257600080fd5b506101036102513660046107f0565b610609565b34801561026257600080fd5b506101036102713660046107f0565b61065b565b61027e6106d1565b600061028982610433565b905080610315576003543410156102da5760405162461bcd60e51b815260206004820152601060248201526f496e73756666696369656e742066656560801b60448201526064015b60405180910390fd5b6005546040516001600160a01b03909116903480156108fc02916000818181858888f19350505050158015610313573d6000803e3d6000fd5b505b801561036357600061032a620151804261099f565b6001600160a01b0384166000908152600260209081526040808320848452909152812080549293509061035c836109c1565b9190505550505b816001600160a01b03167f37b3b120ff78fd541ddc8a2ad9c2d7236ed1cb5a3f11e1e65d35a250752ab3b1826040516103db919060808082526004908201526367616d6560e01b60a082015260c060208201819052600090820181905260e06040830181905282015290151560608201526101000190565b60405180910390a2506103ed60018055565b50565b6103f861072a565b60038190556040518181527f8c4d35e54a3f2ef1134138fd8ea3daee6a3c89e10d2665996babdf70261e2c769060200160405180910390a150565b600080610443620151804261099f565b6004546001600160a01b03909416600090815260026020908152604080832093835292905220549290921092915050565b61047c61072a565b6104866000610784565b565b61049061072a565b600080546040516001600160a01b03909116914780156108fc02929091818181858888f193505050501580156103ed573d6000803e3d6000fd5b6104d26106d1565b60006104dd85610433565b905080610564576003543410156105295760405162461bcd60e51b815260206004820152601060248201526f496e73756666696369656e742066656560801b60448201526064016102d1565b6005546040516001600160a01b03909116903480156108fc02916000818181858888f19350505050158015610562573d6000803e3d6000fd5b505b80156105b2576000610579620151804261099f565b6001600160a01b038716600090815260026020908152604080832084845290915281208054929350906105ab836109c1565b9190505550505b846001600160a01b03167f37b3b120ff78fd541ddc8a2ad9c2d7236ed1cb5a3f11e1e65d35a250752ab3b1858585856040516105f19493929190610a2e565b60405180910390a25061060360018055565b50505050565b61061161072a565b600580546001600160a01b0319166001600160a01b0383169081179091556040517f7dae230f18360d76a040c81f050aa14eb9d6dc7901b20fc5d855e2a20fe814d190600090a250565b61066361072a565b6001600160a01b0381166106c85760405162461bcd60e51b815260206004820152602660248201527f4f776e61626c653a206e6577206f776e657220697320746865207a65726f206160448201526564647265737360d01b60648201526084016102d1565b6103ed81610784565b6002600154036107235760405162461bcd60e51b815260206004820152601f60248201527f5265656e7472616e637947756172643a207265656e7472616e742063616c6c0060448201526064016102d1565b6002600155565b6000546001600160a01b031633146104865760405162461bcd60e51b815260206004820181905260248201527f4f776e61626c653a2063616c6c6572206973206e6f7420746865206f776e657260448201526064016102d1565b600080546001600160a01b038381166001600160a01b0319831681178455604051919092169283917f8be0079c531659141344cd1fd0a4f28419497f9722a3daafe3b4186f6b6457e09190a35050565b80356001600160a01b03811681146107eb57600080fd5b919050565b60006020828403121561080257600080fd5b61080b826107d4565b9392505050565b60006020828403121561082457600080fd5b5035919050565b6000806040838503121561083e57600080fd5b610847836107d4565b946020939093013593505050565b634e487b7160e01b600052604160045260246000fd5b600082601f83011261087c57600080fd5b813567ffffffffffffffff81111561089657610896610855565b604051601f8201601f19908116603f0116810167ffffffffffffffff811182821017156108c5576108c5610855565b6040528181528382016020018510156108dd57600080fd5b816020850160208301376000918101602001919091529392505050565b6000806000806080858703121561091057600080fd5b610919856107d4565b9350602085013567ffffffffffffffff81111561093557600080fd5b6109418782880161086b565b935050604085013567ffffffffffffffff81111561095e57600080fd5b61096a8782880161086b565b925050606085013567ffffffffffffffff81111561098757600080fd5b6109938782880161086b565b91505092959194509250565b6000826109bc57634e487b7160e01b600052601260045260246000fd5b500490565b6000600182016109e157634e487b7160e01b600052601160045260246000fd5b5060010190565b6000815180845260005b81811015610a0e576020818501810151868301820152016109f2565b506000602082860101526020601f19601f83011685010191505092915050565b608081526000610a4160808301876109e8565b8281036020840152610a5381876109e8565b90508281036040840152610a6781866109e8565b91505082151560608301529594505050505056fea264697066735822122095b37399479b84a640f93f8f06ab4983cf7fdfc6265af0b4b2de1ea852fd008a64736f6c634300081c0033",
  "linkReferences": {},
  "deployedLinkReferences": {}
}