{
  "_format": "hh-sol-artifact-1",
  "contractName": "Treasury",
  "sourceName": "contracts/Treasury.sol",
  "abi": [
    {
      "anonymous": false,
      "inputs": [
        {
          "indexed": false,
          "internalType": "uint256",
          "name": "amount",
          "type": "uint256"
        }
      ],
      "name": "EmergencyETHWithdrawn",
      "type": "event"
    },
    {
      "anonymous": false,
      "inputs": [
        {
          "indexed": true,
          "internalType": "address",
          "name": "token",
          "type": "address"
        },
        {
          "indexed": false,
          "internalType": "uint256",
          "name": "amount",
          "type": "uint256"
        }
      ],
      "name": "EmergencyWithdrawn",
      "type": "event"
    },
    {
      "anonymous": false,
      "inputs": [
        {
          "indexed": true,
          "internalType": "address",
          "name": "previousOwner",
          "type": "address"
        },
        {
          "indexed": true,
          "internalType": "address",
          "name": "newOwner",
          "type": "address"
        }
      ],
      "name": "OwnershipTransferred",
      "type": "event"
    },
    {
      "anonymous": false,
      "inputs": [
        {
          "indexed": false,
          "internalType": "address",
          "name": "account",
          "type": "address"
        }
      ],
      "name": "Paused",
      "type": "event"
    },
    {
      "anonymous": false,
      "inputs": [
        {
          "indexed": true,
          "internalType": "address",
          "name": "user",
          "type": "address"
        },
        {
          "indexed": true,
          "internalType": "address",
          "name": "token",
          "type": "address"
        },
        {
          "indexed": false,
          "internalType": "uint256",
          "name": "amount",
          "type": "uint256"
        }
      ],
      "name": "RewardAdded",
      "type": "event"
    },
    {
      "anonymous": false,
      "inputs": [
        {
          "indexed": true,
          "internalType": "address",
          "name": "user",
          "type": "address"
        },
        {
          "indexed": true,
          "internalType": "address",
          "name": "token",
          "type": "address"
        },
        {
          "indexed": false,
          "internalType": "uint256",
          "name": "amount",
          "type": "uint256"
        }
      ],
      "name": "RewardClaimed",
      "type": "event"
    },
    {
      "anonymous": false,
      "inputs": [
        {
          "indexed": true,
          "internalType": "address",
          "name": "token",
          "type": "address"
        },
        {
          "indexed": true,
          "internalType": "address",
          "name": "recipient",
          "type": "address"
        },
        {
          "indexed": false,
          "internalType": "uint256",
          "name": "amount",
          "type": "uint256"
        }
      ],
      "name": "RewardDistributed",
      "type": "event"
    },
    {
      "anonymous": false,
      "inputs": [
        {
          "indexed": true,
          "internalType": "address",
          "name": "token",
          "type": "address"
        },
        {
          "indexed": false,
          "internalType": "string",
          "name": "symbol",
          "type": "string"
        },
        {
          "indexed": false,
          "internalType": "string",
          "name": "image",
          "type": "string"
        }
      ],
      "name": "TokenAdded",
      "type": "event"
    },
    {
      "anonymous": false,
      "inputs": [
        {
          "indexed": true,
          "internalType": "address",
          "name": "token",
          "type": "address"
        }
      ],
      "name": "TokenRemoved",
      "type": "event"
    },
    {
      "anonymous": false,
      "inputs": [
        {
          "indexed": false,
          "internalType": "address",
          "name": "account",
          "type": "address"
        }
      ],
      "name": "Unpaused",
      "type": "event"
    },
    {
      "inputs": [
        {
          "internalType": "address",
          "name": "user",
          "type": "address"
        },
        {
          "internalType": "address",
          "name": "token",
          "type": "address"
        },
        {
          "internalType": "uint256",
          "name": "amount",
          "type": "uint256"
        }
      ],
      "name": "addReward",
      "outputs": [],
      "stateMutability": "nonpayable",
      "type": "function"
    },
    {
      "inputs": [
        {
          "internalType": "address",
          "name": "token",
          "type": "address"
        },
        {
          "internalType": "string",
          "name": "symbol",
          "type": "string"
        },
        {
          "internalType": "string",
          "name": "image",
          "type": "string"
        }
      ],
      "name": "addSupportedToken",
      "outputs": [],
      "stateMutability": "nonpayable",
      "type": "function"
    },
    {
      "inputs": [
        {
          "internalType": "address",
          "name": "token",
          "type": "address"
        }
      ],
      "name": "claimReward",
      "outputs": [],
      "stateMutability": "nonpayable",
      "type": "function"
    },
    {
      "inputs": [
        {
          "internalType": "address",
          "name": "token",
          "type": "address"
        },
        {
          "internalType": "address",
          "name": "recipient",
          "type": "address"
        },
        {
          "internalType": "uint256",
          "name": "amount",
          "type": "uint256"
        }
      ],
      "name": "distributeReward",
      "outputs": [],
      "stateMutability": "nonpayable",
      "type": "function"
    },
    {
      "inputs": [],
      "name": "emergencyWithdrawAllETH",
      "outputs": [],
      "stateMutability": "nonpayable",
      "type": "function"
    },
    {
      "inputs": [
        {
          "internalType": "address",
          "name": "token",
          "type": "address"
        }
      ],
      "name": "emergencyWithdrawAllTokens",
      "outputs": [],
      "stateMutability": "nonpayable",
      "type": "function"
    },
    {
      "inputs": [],
      "name": "getSupportedTokens",
      "outputs": [
        {
          "internalType": "address[]",
          "name": "",
          "type": "address[]"
        }
      ],
      "stateMutability": "view",
      "type": "function"
    },
    {
      "inputs": [
        {
          "internalType": "address",
          "name": "user",
          "type": "address"
        },
        {
          "internalType": "address",
          "name": "token",
          "type": "address"
        }
      ],
      "name": "getUserReward",
      "outputs": [
        {
          "internalType": "uint256",
          "name": "",
          "type": "uint256"
        }
      ],
      "stateMutability": "view",
      "type": "function"
    },
    {
      "inputs": [
        {
          "internalType": "address",
          "name": "",
          "type": "address"
        }
      ],
      "name": "isSupportedToken",
      "outputs": [
        {
          "internalType": "bool",
          "name": "",
          "type": "bool"
        }
      ],
      "stateMutability": "view",
      "type": "function"
    },
    {
      "inputs": [],
      "name": "owner",
      "outputs": [
        {
          "internalType": "address",
          "name": "",
          "type": "address"
        }
      ],
      "stateMutability": "view",
      "type": "function"
    },
    {
      "inputs": [],
      "name": "pause",
      "outputs": [],
      "stateMutability": "nonpayable",
      "type": "function"
    },
    {
      "inputs": [],
      "name": "paused",
      "outputs": [
        {
          "internalType": "bool",
          "name": "",
          "type": "bool"
        }
      ],
      "stateMutability": "view",
      "type": "function"
    },
    {
      "inputs": [
        {
          "internalType": "address",
          "name": "token",
          "type": "address"
        }
      ],
      "name": "removeSupportedToken",
      "outputs": [],
      "stateMutability": "nonpayable",
      "type": "function"
    },
    {
      "inputs": [],
      "name": "renounceOwnership",
      "outputs": [],
      "stateMutability": "nonpayable",
      "type": "function"
    },
    {
      "inputs": [
        {
          "internalType": "uint256",
          "name": "",
          "type": "uint256"
        }
      ],
      "name": "supportedTokens",
      "outputs": [
        {
          "internalType": "address",
          "name": "",
          "type": "address"
        }
      ],
      "stateMutability": "view",
      "type": "function"
    },
    {
      "inputs": [
        {
          "internalType": "address",
          "name": "",
          "type": "address"
        }
      ],
      "name": "tokenImages",
      "outputs": [
        {
          "internalType": "string",
          "name": "",
          "type": "string"
        }
      ],
      "stateMutability": "view",
      "type": "function"
    },
    {
      "inputs": [
        {
          "internalType": "address",
          "name": "",
          "type": "address"
        }
      ],
      "name": "tokenSymbols",
      "outputs": [
        {
          "internalType": "string",
          "name": "",
          "type": "string"
        }
      ],
      "stateMutability": "view",
      "type": "function"
    },
    {
      "inputs": [
        {
          "internalType": "address",
          "name": "newOwner",
          "type": "address"
        }
      ],
      "name": "transferOwnership",
      "outputs": [],
      "stateMutability": "nonpayable",
      "type": "function"
    },
    {
      "inputs": [
        {
          "internalType": "address",
          "name": "token",
          "type": "address"
        }
      ],
      "name": "treasuryBalanceToken",
      "outputs": [
        {
          "internalType": "uint256",
          "name": "",
          "type": "uint256"
        }
      ],
      "stateMutability": "view",
      "type": "function"
    },
    {
      "inputs": [],
      "name": "unpause",
      "outputs": [],
      "stateMutability": "nonpayable",
      "type": "function"
    },
    {
      "inputs": [
        {
          "internalType": "address",
          "name": "",
          "type": "address"
        },
        {
          "internalType": "address",
          "name": "",
          "type": "address"
        }
      ],
      "name": "userRewards",
      "outputs": [
        {
          "internalType": "uint256",
          "name": "",
          "type": "uint256"
        }
      ],
      "stateMutability": "view",
      "type": "function"
    },
    {
      "inputs": [
        {
          "internalType": "uint256",
          "name": "amount",
          "type": "uint256"
        }
      ],
      "name": "withdrawETH",
      "outputs": [],
      "stateMutability": "nonpayable",
      "type": "function"
    },
    {
      "inputs": [
        {
          "internalType": "address",
          "name": "token",
          "type": "address"
        },
        {
          "internalType": "uint256",
          "name": "amount",
          "type": "uint256"
        }
      ],
      "name": "withdrawTokens",
      "outputs": [],
      "stateMutability": "nonpayable",
      "type": "function"
    },
    {
      "stateMutability": "payable",
      "type": "receive"
    }
  ],
  "bytecode": "0x6080604052348015600f57600080fd5b506017336029565b600180556002805460ff191690556079565b600080546001600160a01b038381166001600160a01b0319831681178455604051919092169283917f8be0079c531659141344cd1fd0a4f28419497f9722a3daafe3b4186f6b6457e09190a35050565b61196a806100886000396000f3fe6080604052600436106101445760003560e01c80639bd12588116100b6578063d3c7c2c71161006f578063d3c7c2c7146103d9578063e7cea7f4146103fb578063f14210a61461041b578063f2fde38b1461043b578063f4690bad1461045b578063fb0b2b361461047057600080fd5b80639bd12588146102f4578063a980356a14610314578063afd9f2e61461034c578063c625562614610379578063d0ed26ae14610399578063d279c191146103b957600080fd5b80635c975abb116101085780635c975abb14610240578063715018a614610258578063763191901461026d5780638456cb591461028d5780638da5cb5b146102a25780639675f7bf146102d457600080fd5b806306b091f91461015057806316b1df5a14610172578063240028e8146101a55780633f4ba83a146101e55780635ab764ed146101fa57600080fd5b3661014b57005b600080fd5b34801561015c57600080fd5b5061017061016b36600461142e565b610490565b005b34801561017e57600080fd5b5061019261018d366004611458565b610553565b6040519081526020015b60405180910390f35b3480156101b157600080fd5b506101d56101c0366004611458565b60046020526000908152604090205460ff1681565b604051901515815260200161019c565b3480156101f157600080fd5b506101706105c4565b34801561020657600080fd5b5061019261021536600461147a565b6001600160a01b03918216600090815260076020908152604080832093909416825291909152205490565b34801561024c57600080fd5b5060025460ff166101d5565b34801561026457600080fd5b506101706105d6565b34801561027957600080fd5b50610170610288366004611458565b6105e8565b34801561029957600080fd5b506101706107d2565b3480156102ae57600080fd5b506000546001600160a01b03165b6040516001600160a01b03909116815260200161019c565b3480156102e057600080fd5b506101706102ef366004611552565b6107e2565b34801561030057600080fd5b5061017061030f366004611458565b610935565b34801561032057600080fd5b5061019261032f36600461147a565b600760209081526000928352604080842090915290825290205481565b34801561035857600080fd5b5061036c610367366004611458565b610ae7565b60405161019c9190611611565b34801561038557600080fd5b506102bc610394366004611624565b610b81565b3480156103a557600080fd5b506101706103b436600461163d565b610bab565b3480156103c557600080fd5b506101706103d4366004611458565b610c7b565b3480156103e557600080fd5b506103ee610e23565b60405161019c919061167a565b34801561040757600080fd5b5061017061041636600461163d565b610e85565b34801561042757600080fd5b50610170610436366004611624565b611066565b34801561044757600080fd5b50610170610456366004611458565b6110a7565b34801561046757600080fd5b5061017061111d565b34801561047c57600080fd5b5061036c61048b366004611458565b6111d8565b6104986111f1565b816001600160a01b031663a9059cbb6104b96000546001600160a01b031690565b6040516001600160e01b031960e084901b1681526001600160a01b039091166004820152602481018490526044016020604051808303816000875af1158015610506573d6000803e3d6000fd5b505050506040513d601f19601f8201168201806040525081019061052a91906116c6565b61054f5760405162461bcd60e51b8152600401610546906116e8565b60405180910390fd5b5050565b6040516370a0823160e01b81523060048201526000906001600160a01b038316906370a0823190602401602060405180830381865afa15801561059a573d6000803e3d6000fd5b505050506040513d601f19601f820116820180604052508101906105be9190611711565b92915050565b6105cc6111f1565b6105d461124b565b565b6105de6111f1565b6105d4600061129d565b6105f06111f1565b6001600160a01b03811660009081526004602052604090205460ff166106285760405162461bcd60e51b81526004016105469061172a565b6001600160a01b0381166000818152600460209081526040808320805460ff1916905580518083018252838152938352600590915290209061066a90826117df565b50604080516020808201835260008083526001600160a01b03851681526006909152919091209061069b90826117df565b5060005b60035481101561079a57816001600160a01b0316600382815481106106c6576106c661189e565b6000918252602090912001546001600160a01b03160361079257600380546106f0906001906118ca565b815481106107005761070061189e565b600091825260209091200154600380546001600160a01b03909216918390811061072c5761072c61189e565b9060005260206000200160006101000a8154816001600160a01b0302191690836001600160a01b03160217905550600380548061076b5761076b6118dd565b600082815260209020810160001990810180546001600160a01b031916905501905561079a565b60010161069f565b506040516001600160a01b038216907f4c910b69fe65a61f7531b9c5042b2329ca7179c77290aa7e2eb3afa3c8511fd390600090a250565b6107da6111f1565b6105d46112ed565b6107ea6111f1565b6001600160a01b03831660009081526004602052604090205460ff16156108535760405162461bcd60e51b815260206004820152601760248201527f546f6b656e20616c726561647920737570706f727465640000000000000000006044820152606401610546565b6003805460018082019092557fc2575a0e9e593c00f959f8c92f12db2869c3395a3b0502d05e2516446f71f85b0180546001600160a01b0319166001600160a01b0386169081179091556000908152600460209081526040808320805460ff191690941790935560059052206108c983826117df565b506001600160a01b03831660009081526006602052604090206108ec82826117df565b50826001600160a01b03167f2fb34ce114a136590b874d8cf80e7652adda576578bacfa4f8023f720f56939483836040516109289291906118f3565b60405180910390a2505050565b61093d6111f1565b6040516370a0823160e01b81523060048201526000906001600160a01b038316906370a0823190602401602060405180830381865afa158015610984573d6000803e3d6000fd5b505050506040513d601f19601f820116820180604052508101906109a89190611711565b9050600081116109f25760405162461bcd60e51b81526020600482015260156024820152744e6f20746f6b656e7320746f20776974686472617760581b6044820152606401610546565b816001600160a01b031663a9059cbb610a136000546001600160a01b031690565b6040516001600160e01b031960e084901b1681526001600160a01b039091166004820152602481018490526044016020604051808303816000875af1158015610a60573d6000803e3d6000fd5b505050506040513d601f19601f82011682018060405250810190610a8491906116c6565b610aa05760405162461bcd60e51b8152600401610546906116e8565b816001600160a01b03167f2e39961a70a10f4d46383948095ac2752b3ee642a7c76aa827410aaff08c2e5182604051610adb91815260200190565b60405180910390a25050565b60066020526000908152604090208054610b0090611757565b80601f0160208091040260200160405190810160405280929190818152602001828054610b2c90611757565b8015610b795780601f10610b4e57610100808354040283529160200191610b79565b820191906000526020600020905b815481529060010190602001808311610b5c57829003601f168201915b505050505081565b60038181548110610b9157600080fd5b6000918252602090912001546001600160a01b0316905081565b610bb36111f1565b6001600160a01b03821660009081526004602052604090205460ff16610beb5760405162461bcd60e51b81526004016105469061172a565b6001600160a01b03808416600090815260076020908152604080832093861683529290529081208054839290610c22908490611921565b92505081905550816001600160a01b0316836001600160a01b03167f0f7cde3c0518e1cc590491be5861d70a2e333f7e65af2e1ebd91a3c9a3cc638d83604051610c6e91815260200190565b60405180910390a3505050565b610c8361132a565b610c8b611383565b3360009081526007602090815260408083206001600160a01b038516845290915290205480610cf25760405162461bcd60e51b81526020600482015260136024820152724e6f207265776172647320746f20636c61696d60681b6044820152606401610546565b6001600160a01b03821660009081526004602052604090205460ff16610d2a5760405162461bcd60e51b81526004016105469061172a565b3360008181526007602090815260408083206001600160a01b038716808552925280832092909255905163a9059cbb60e01b81526004810192909252602482018390529063a9059cbb906044016020604051808303816000875af1158015610d96573d6000803e3d6000fd5b505050506040513d601f19601f82011682018060405250810190610dba91906116c6565b610dd65760405162461bcd60e51b8152600401610546906116e8565b6040518181526001600160a01b0383169033907f0aa4d283470c904c551d18bb894d37e17674920f3261a7f854be501e25f421b79060200160405180910390a350610e2060018055565b50565b60606003805480602002602001604051908101604052809291908181526020018280548015610e7b57602002820191906000526020600020905b81546001600160a01b03168152600190910190602001808311610e5d575b5050505050905090565b610e8d6111f1565b610e9561132a565b6001600160a01b03831660009081526004602052604090205460ff16610ecd5760405162461bcd60e51b81526004016105469061172a565b6040516370a0823160e01b815230600482015281906001600160a01b038516906370a0823190602401602060405180830381865afa158015610f13573d6000803e3d6000fd5b505050506040513d601f19601f82011682018060405250810190610f379190611711565b1015610f7c5760405162461bcd60e51b8152602060048201526014602482015273496e73756666696369656e742062616c616e636560601b6044820152606401610546565b60405163a9059cbb60e01b81526001600160a01b0383811660048301526024820183905284169063a9059cbb906044016020604051808303816000875af1158015610fcb573d6000803e3d6000fd5b505050506040513d601f19601f82011682018060405250810190610fef91906116c6565b61100b5760405162461bcd60e51b8152600401610546906116e8565b816001600160a01b0316836001600160a01b03167f5303cb8fc2ab504b092b4799d2c00f2209ee4eee6b03a168171dc140ed7403ee8360405161105091815260200190565b60405180910390a361106160018055565b505050565b61106e6111f1565b600080546040516001600160a01b039091169183156108fc02918491818181858888f1935050505015801561054f573d6000803e3d6000fd5b6110af6111f1565b6001600160a01b0381166111145760405162461bcd60e51b815260206004820152602660248201527f4f776e61626c653a206e6577206f776e657220697320746865207a65726f206160448201526564647265737360d01b6064820152608401610546565b610e208161129d565b6111256111f1565b47806111685760405162461bcd60e51b81526020600482015260126024820152714e6f2045544820746f20776974686472617760701b6044820152606401610546565b600080546040516001600160a01b039091169183156108fc02918491818181858888f193505050501580156111a1573d6000803e3d6000fd5b506040518181527fc7a8980d515ca7aac26208d8c69d8519dd280de18fda5faa26a247e2ec07d4c99060200160405180910390a150565b60056020526000908152604090208054610b0090611757565b6000546001600160a01b031633146105d45760405162461bcd60e51b815260206004820181905260248201527f4f776e61626c653a2063616c6c6572206973206e6f7420746865206f776e65726044820152606401610546565b6112536113c9565b6002805460ff191690557f5db9ee0a495bf2e6ff9c91a7834c1ba4fdd244a5e8aa4e537bd38aeae4b073aa335b6040516001600160a01b03909116815260200160405180910390a1565b600080546001600160a01b038381166001600160a01b0319831681178455604051919092169283917f8be0079c531659141344cd1fd0a4f28419497f9722a3daafe3b4186f6b6457e09190a35050565b6112f5611383565b6002805460ff191660011790557f62e78cea01bee320cd4e420270b5ea74000d11b0c9f74754ebdbfc544b05a2586112803390565b60026001540361137c5760405162461bcd60e51b815260206004820152601f60248201527f5265656e7472616e637947756172643a207265656e7472616e742063616c6c006044820152606401610546565b6002600155565b60025460ff16156105d45760405162461bcd60e51b815260206004820152601060248201526f14185d5cd8589b194e881c185d5cd95960821b6044820152606401610546565b60025460ff166105d45760405162461bcd60e51b815260206004820152601460248201527314185d5cd8589b194e881b9bdd081c185d5cd95960621b6044820152606401610546565b80356001600160a01b038116811461142957600080fd5b919050565b6000806040838503121561144157600080fd5b61144a83611412565b946020939093013593505050565b60006020828403121561146a57600080fd5b61147382611412565b9392505050565b6000806040838503121561148d57600080fd5b61149683611412565b91506114a460208401611412565b90509250929050565b634e487b7160e01b600052604160045260246000fd5b600082601f8301126114d457600080fd5b813567ffffffffffffffff8111156114ee576114ee6114ad565b604051601f8201601f19908116603f0116810167ffffffffffffffff8111828210171561151d5761151d6114ad565b60405281815283820160200185101561153557600080fd5b816020850160208301376000918101602001919091529392505050565b60008060006060848603121561156757600080fd5b61157084611412565b9250602084013567ffffffffffffffff81111561158c57600080fd5b611598868287016114c3565b925050604084013567ffffffffffffffff8111156115b557600080fd5b6115c1868287016114c3565b9150509250925092565b6000815180845260005b818110156115f1576020818501810151868301820152016115d5565b506000602082860101526020601f19601f83011685010191505092915050565b60208152600061147360208301846115cb565b60006020828403121561163657600080fd5b5035919050565b60008060006060848603121561165257600080fd5b61165b84611412565b925061166960208501611412565b929592945050506040919091013590565b602080825282518282018190526000918401906040840190835b818110156116bb5783516001600160a01b0316835260209384019390920191600101611694565b509095945050505050565b6000602082840312156116d857600080fd5b8151801515811461147357600080fd5b6020808252600f908201526e151c985b9cd9995c8819985a5b1959608a1b604082015260600190565b60006020828403121561172357600080fd5b5051919050565b602080825260139082015272151bdad95b881b9bdd081cdd5c1c1bdc9d1959606a1b604082015260600190565b600181811c9082168061176b57607f821691505b60208210810361178b57634e487b7160e01b600052602260045260246000fd5b50919050565b601f82111561106157806000526020600020601f840160051c810160208510156117b85750805b601f840160051c820191505b818110156117d857600081556001016117c4565b5050505050565b815167ffffffffffffffff8111156117f9576117f96114ad565b61180d816118078454611757565b84611791565b6020601f82116001811461184157600083156118295750848201515b600019600385901b1c1916600184901b1784556117d8565b600084815260208120601f198516915b828110156118715787850151825560209485019460019092019101611851565b508482101561188f5786840151600019600387901b60f8161c191681555b50505050600190811b01905550565b634e487b7160e01b600052603260045260246000fd5b634e487b7160e01b600052601160045260246000fd5b818103818111156105be576105be6118b4565b634e487b7160e01b600052603160045260246000fd5b60408152600061190660408301856115cb565b828103602084015261191881856115cb565b95945050505050565b808201808211156105be576105be6118b456fea2646970667358221220b8f1883a4f511717e429554110ffe60358c5cd7e2554635d61182971f447444464736f6c634300081c0033",
  "linkReferences": {},
  "deployedLinkReferences": {}
}