{
  "_format": "hh-sol-artifact-1",
  "contractName": "MememintERC1155",
  "sourceName": "contracts/MememintERC1155.sol",
  "abi": [
    {
      "inputs": [
        {
          "internalType": "address",
          "name": "_treasury",
          "type": "address"
        }
      ],
      "stateMutability": "nonpayable",
      "type": "constructor"
    },
    {
      "anonymous": false,
      "inputs": [
        {
          "indexed": true,
          "internalType": "address",
          "name": "account",
          "type": "address"
        },
        {
          "indexed": true,
          "internalType": "address",
          "name": "operator",
          "type": "address"
        },
        {
          "indexed": false,
          "internalType": "bool",
          "name": "approved",
          "type": "bool"
        }
      ],
      "name": "ApprovalForAll",
      "type": "event"
    },
    {
      "anonymous": false,
      "inputs": [
        {
          "indexed": true,
          "internalType": "uint256",
          "name": "id",
          "type": "uint256"
        },
        {
          "indexed": false,
          "internalType": "uint256",
          "name": "priceWei",
          "type": "uint256"
        },
        {
          "indexed": false,
          "internalType": "uint256",
          "name": "supply",
          "type": "uint256"
        },
        {
          "indexed": false,
          "internalType": "string",
          "name": "uri",
          "type": "string"
        }
      ],
      "name": "DropCreated",
      "type": "event"
    },
    {
      "anonymous": false,
      "inputs": [
        {
          "indexed": true,
          "internalType": "address",
          "name": "buyer",
          "type": "address"
        },
        {
          "indexed": true,
          "internalType": "uint256",
          "name": "id",
          "type": "uint256"
        },
        {
          "indexed": false,
          "internalType": "uint256",
          "name": "amount",
          "type": "uint256"
        },
        {
          "indexed": false,
          "internalType": "uint256",
          "name": "paid",
          "type": "uint256"
        }
      ],
      "name": "Minted",
      "type": "event"
    },
    {
      "anonymous": false,
      "inputs": [
        {
          "indexed": true,
          "internalType": "address",
          "name": "previousOwner",
          "type": "address"
        },
        {
          "indexed": true,
          "internalType": "address",
          "name": "newOwner",
          "type": "address"
        }
      ],
      "name": "OwnershipTransferred",
      "type": "event"
    },
    {
      "anonymous": false,
      "inputs": [
        {
          "indexed": false,
          "internalType": "address",
          "name": "account",
          "type": "address"
        }
      ],
      "name": "Paused",
      "type": "event"
    },
    {
      "anonymous": false,
      "inputs": [
        {
          "indexed": true,
          "internalType": "address",
          "name": "operator",
          "type": "address"
        },
        {
          "indexed": true,
          "internalType": "address",
          "name": "from",
          "type": "address"
        },
        {
          "indexed": true,
          "internalType": "address",
          "name": "to",
          "type": "address"
        },
        {
          "indexed": false,
          "internalType": "uint256[]",
          "name": "ids",
          "type": "uint256[]"
        },
        {
          "indexed": false,
          "internalType": "uint256[]",
          "name": "values",
          "type": "uint256[]"
        }
      ],
      "name": "TransferBatch",
      "type": "event"
    },
    {
      "anonymous": false,
      "inputs": [
        {
          "indexed": true,
          "internalType": "address",
          "name": "operator",
          "type": "address"
        },
        {
          "indexed": true,
          "internalType": "address",
          "name": "from",
          "type": "address"
        },
        {
          "indexed": true,
          "internalType": "address",
          "name": "to",
          "type": "address"
        },
        {
          "indexed": false,
          "internalType": "uint256",
          "name": "id",
          "type": "uint256"
        },
        {
          "indexed": false,
          "internalType": "uint256",
          "name": "value",
          "type": "uint256"
        }
      ],
      "name": "TransferSingle",
      "type": "event"
    },
    {
      "anonymous": false,
      "inputs": [
        {
          "indexed": false,
          "internalType": "string",
          "name": "value",
          "type": "string"
        },
        {
          "indexed": true,
          "internalType": "uint256",
          "name": "id",
          "type": "uint256"
        }
      ],
      "name": "URI",
      "type": "event"
    },
    {
      "anonymous": false,
      "inputs": [
        {
          "indexed": false,
          "internalType": "address",
          "name": "account",
          "type": "address"
        }
      ],
      "name": "Unpaused",
      "type": "event"
    },
    {
      "inputs": [
        {
          "internalType": "address",
          "name": "account",
          "type": "address"
        },
        {
          "internalType": "uint256",
          "name": "id",
          "type": "uint256"
        }
      ],
      "name": "balanceOf",
      "outputs": [
        {
          "internalType": "uint256",
          "name": "",
          "type": "uint256"
        }
      ],
      "stateMutability": "view",
      "type": "function"
    },
    {
      "inputs": [
        {
          "internalType": "address[]",
          "name": "accounts",
          "type": "address[]"
        },
        {
          "internalType": "uint256[]",
          "name": "ids",
          "type": "uint256[]"
        }
      ],
      "name": "balanceOfBatch",
      "outputs": [
        {
          "internalType": "uint256[]",
          "name": "",
          "type": "uint256[]"
        }
      ],
      "stateMutability": "view",
      "type": "function"
    },
    {
      "inputs": [
        {
          "internalType": "uint256",
          "name": "id",
          "type": "uint256"
        },
        {
          "internalType": "uint256",
          "name": "priceWei",
          "type": "uint256"
        },
        {
          "internalType": "uint256",
          "name": "supply",
          "type": "uint256"
        },
        {
          "internalType": "string",
          "name": "uri_",
          "type": "string"
        }
      ],
      "name": "createDrop",
      "outputs": [],
      "stateMutability": "nonpayable",
      "type": "function"
    },
    {
      "inputs": [
        {
          "internalType": "uint256",
          "name": "",
          "type": "uint256"
        }
      ],
      "name": "drops",
      "outputs": [
        {
          "internalType": "uint256",
          "name": "priceWei",
          "type": "uint256"
        },
        {
          "internalType": "uint256",
          "name": "supply",
          "type": "uint256"
        },
        {
          "internalType": "uint256",
          "name": "minted",
          "type": "uint256"
        },
        {
          "internalType": "string",
          "name": "uri",
          "type": "string"
        },
        {
          "internalType": "bool",
          "name": "exists",
          "type": "bool"
        }
      ],
      "stateMutability": "view",
      "type": "function"
    },
    {
      "inputs": [
        {
          "internalType": "uint256",
          "name": "id",
          "type": "uint256"
        }
      ],
      "name": "getDrop",
      "outputs": [
        {
          "internalType": "uint256",
          "name": "priceWei",
          "type": "uint256"
        },
        {
          "internalType": "uint256",
          "name": "supply",
          "type": "uint256"
        },
        {
          "internalType": "uint256",
          "name": "minted",
          "type": "uint256"
        },
        {
          "internalType": "string",
          "name": "metadataUri",
          "type": "string"
        }
      ],
      "stateMutability": "view",
      "type": "function"
    },
    {
      "inputs": [
        {
          "internalType": "uint256",
          "name": "id",
          "type": "uint256"
        }
      ],
      "name": "getRemainingSupply",
      "outputs": [
        {
          "internalType": "uint256",
          "name": "",
          "type": "uint256"
        }
      ],
      "stateMutability": "view",
      "type": "function"
    },
    {
      "inputs": [
        {
          "internalType": "address",
          "name": "account",
          "type": "address"
        },
        {
          "internalType": "address",
          "name": "operator",
          "type": "address"
        }
      ],
      "name": "isApprovedForAll",
      "outputs": [
        {
          "internalType": "bool",
          "name": "",
          "type": "bool"
        }
      ],
      "stateMutability": "view",
      "type": "function"
    },
    {
      "inputs": [
        {
          "internalType": "uint256",
          "name": "id",
          "type": "uint256"
        },
        {
          "internalType": "uint256",
          "name": "amount",
          "type": "uint256"
        }
      ],
      "name": "mint",
      "outputs": [],
      "stateMutability": "payable",
      "type": "function"
    },
    {
      "inputs": [],
      "name": "owner",
      "outputs": [
        {
          "internalType": "address",
          "name": "",
          "type": "address"
        }
      ],
      "stateMutability": "view",
      "type": "function"
    },
    {
      "inputs": [],
      "name": "pause",
      "outputs": [],
      "stateMutability": "nonpayable",
      "type": "function"
    },
    {
      "inputs": [],
      "name": "paused",
      "outputs": [
        {
          "internalType": "bool",
          "name": "",
          "type": "bool"
        }
      ],
      "stateMutability": "view",
      "type": "function"
    },
    {
      "inputs": [],
      "name": "renounceOwnership",
      "outputs": [],
      "stateMutability": "nonpayable",
      "type": "function"
    },
    {
      "inputs": [
        {
          "internalType": "address",
          "name": "from",
          "type": "address"
        },
        {
          "internalType": "address",
          "name": "to",
          "type": "address"
        },
        {
          "internalType": "uint256[]",
          "name": "ids",
          "type": "uint256[]"
        },
        {
          "internalType": "uint256[]",
          "name": "amounts",
          "type": "uint256[]"
        },
        {
          "internalType": "bytes",
          "name": "data",
          "type": "bytes"
        }
      ],
      "name": "safeBatchTransferFrom",
      "outputs": [],
      "stateMutability": "nonpayable",
      "type": "function"
    },
    {
      "inputs": [
        {
          "internalType": "address",
          "name": "from",
          "type": "address"
        },
        {
          "internalType": "address",
          "name": "to",
          "type": "address"
        },
        {
          "internalType": "uint256",
          "name": "id",
          "type": "uint256"
        },
        {
          "internalType": "uint256",
          "name": "amount",
          "type": "uint256"
        },
        {
          "internalType": "bytes",
          "name": "data",
          "type": "bytes"
        }
      ],
      "name": "safeTransferFrom",
      "outputs": [],
      "stateMutability": "nonpayable",
      "type": "function"
    },
    {
      "inputs": [
        {
          "internalType": "address",
          "name": "operator",
          "type": "address"
        },
        {
          "internalType": "bool",
          "name": "approved",
          "type": "bool"
        }
      ],
      "name": "setApprovalForAll",
      "outputs": [],
      "stateMutability": "nonpayable",
      "type": "function"
    },
    {
      "inputs": [
        {
          "internalType": "address",
          "name": "_treasury",
          "type": "address"
        }
      ],
      "name": "setTreasury",
      "outputs": [],
      "stateMutability": "nonpayable",
      "type": "function"
    },
    {
      "inputs": [
        {
          "internalType": "bytes4",
          "name": "interfaceId",
          "type": "bytes4"
        }
      ],
      "name": "supportsInterface",
      "outputs": [
        {
          "internalType": "bool",
          "name": "",
          "type": "bool"
        }
      ],
      "stateMutability": "view",
      "type": "function"
    },
    {
      "inputs": [
        {
          "internalType": "address",
          "name": "newOwner",
          "type": "address"
        }
      ],
      "name": "transferOwnership",
      "outputs": [],
      "stateMutability": "nonpayable",
      "type": "function"
    },
    {
      "inputs": [],
      "name": "treasury",
      "outputs": [
        {
          "internalType": "address",
          "name": "",
          "type": "address"
        }
      ],
      "stateMutability": "view",
      "type": "function"
    },
    {
      "inputs": [],
      "name": "unpause",
      "outputs": [],
      "stateMutability": "nonpayable",
      "type": "function"
    },
    {
      "inputs": [
        {
          "internalType": "uint256",
          "name": "id",
          "type": "uint256"
        }
      ],
      "name": "uri",
      "outputs": [
        {
          "internalType": "string",
          "name": "",
          "type": "string"
        }
      ],
      "stateMutability": "view",
      "type": "function"
    }
  ],
  "bytecode": "0x608060405234801561001057600080fd5b506040516126c03803806126c083398101604081905261002f91610131565b604080516020810190915260008152610047816100cf565b50610051336100df565b60016004556005805460ff191690556001600160a01b0381166100aa5760405162461bcd60e51b815260206004820152600d60248201526c7a65726f20747265617375727960981b604482015260640160405180910390fd5b600780546001600160a01b0319166001600160a01b03929092169190911790556102be565b60026100db8282610200565b5050565b600380546001600160a01b038381166001600160a01b0319831681179093556040519116919082907f8be0079c531659141344cd1fd0a4f28419497f9722a3daafe3b4186f6b6457e090600090a35050565b60006020828403121561014357600080fd5b81516001600160a01b038116811461015a57600080fd5b9392505050565b634e487b7160e01b600052604160045260246000fd5b600181811c9082168061018b57607f821691505b6020821081036101ab57634e487b7160e01b600052602260045260246000fd5b50919050565b601f8211156101fb57806000526020600020601f840160051c810160208510156101d85750805b601f840160051c820191505b818110156101f857600081556001016101e4565b50505b505050565b81516001600160401b0381111561021957610219610161565b61022d816102278454610177565b846101b1565b6020601f82116001811461026157600083156102495750848201515b600019600385901b1c1916600184901b1784556101f8565b600084815260208120601f198516915b828110156102915787850151825560209485019460019092019101610271565b50848210156102af5786840151600019600387901b60f8161c191681555b50505050600190811b01905550565b6123f3806102cd6000396000f3fe6080604052600436106101295760003560e01c806361d027b3116100ab5780638da5cb5b1161006f5780638da5cb5b14610350578063a22cb4651461036e578063e985e9c51461038e578063f0f44260146103d7578063f242432a146103f7578063f2fde38b1461041757600080fd5b806361d027b31461029e5780636787d449146102d6578063715018a6146103065780638456cb591461031b5780638c858a141461033057600080fd5b80633f4ba83a116100f25780633f4ba83a146101f35780634e1273f4146102085780635170a262146102355780635c975abb146102555780635eb399681461026d57600080fd5b8062fdd58e1461012e57806301ffc9a7146101615780630e89341c146101915780631b2ef1ca146101be5780632eb2c2d6146101d3575b600080fd5b34801561013a57600080fd5b5061014e610149366004611918565b610437565b6040519081526020015b60405180910390f35b34801561016d57600080fd5b5061018161017c366004611958565b6104d0565b6040519015158152602001610158565b34801561019d57600080fd5b506101b16101ac36600461197c565b610520565b60405161015891906119db565b6101d16101cc3660046119ee565b6105f5565b005b3480156101df57600080fd5b506101d16101ee366004611b5c565b6108d5565b3480156101ff57600080fd5b506101d1610921565b34801561021457600080fd5b50610228610223366004611c0f565b610933565b6040516101589190611d1e565b34801561024157600080fd5b506101d1610250366004611d31565b610a54565b34801561026157600080fd5b5060055460ff16610181565b34801561027957600080fd5b5061028d61028836600461197c565b610bdf565b604051610158959493929190611dbe565b3480156102aa57600080fd5b506007546102be906001600160a01b031681565b6040516001600160a01b039091168152602001610158565b3480156102e257600080fd5b506102f66102f136600461197c565b610c9b565b6040516101589493929190611df7565b34801561031257600080fd5b506101d1610dd5565b34801561032757600080fd5b506101d1610de7565b34801561033c57600080fd5b5061014e61034b36600461197c565b610df7565b34801561035c57600080fd5b506003546001600160a01b03166102be565b34801561037a57600080fd5b506101d1610389366004611e26565b610e4b565b34801561039a57600080fd5b506101816103a9366004611e62565b6001600160a01b03918216600090815260016020908152604080832093909416825291909152205460ff1690565b3480156103e357600080fd5b506101d16103f2366004611e95565b610e56565b34801561040357600080fd5b506101d1610412366004611eb0565b610ec6565b34801561042357600080fd5b506101d1610432366004611e95565b610f0b565b60006001600160a01b0383166104a75760405162461bcd60e51b815260206004820152602a60248201527f455243313135353a2061646472657373207a65726f206973206e6f742061207660448201526930b634b21037bbb732b960b11b60648201526084015b60405180910390fd5b506000818152602081815260408083206001600160a01b03861684529091529020545b92915050565b60006001600160e01b03198216636cdb3d1360e11b148061050157506001600160e01b031982166303a24d0760e21b145b806104ca57506301ffc9a760e01b6001600160e01b03198316146104ca565b60008181526006602052604090206004015460609060ff166105545760405162461bcd60e51b815260040161049e90611f08565b6000828152600660205260409020600301805461057090611f29565b80601f016020809104026020016040519081016040528092919081815260200182805461059c90611f29565b80156105e95780601f106105be576101008083540402835291602001916105e9565b820191906000526020600020905b8154815290600101906020018083116105cc57829003601f168201915b50505050509050919050565b6105fd610f84565b610605610fdd565b6000828152600660205260409020600481015460ff166106375760405162461bcd60e51b815260040161049e90611f08565b600082116106725760405162461bcd60e51b81526020600482015260086024820152670616d6f756e743e360c41b604482015260640161049e565b80600101548282600201546106879190611f79565b11156106c05760405162461bcd60e51b81526020600482015260086024820152671cdbdb19081bdd5d60c21b604482015260640161049e565b80546000906106d0908490611f8c565b9050803410156107155760405162461bcd60e51b815260206004820152601060248201526f0d2dce6eaccccd2c6d2cadce8408aa8960831b604482015260640161049e565b828260020160008282546107299190611f79565b9250508190555061074b33858560405180602001604052806000815250611023565b6007546040516000916001600160a01b03169083908381818185875af1925050503d8060008114610798576040519150601f19603f3d011682016040523d82523d6000602084013e61079d565b606091505b50509050806107ee5760405162461bcd60e51b815260206004820152601860248201527f7472656173757279207472616e73666572206661696c65640000000000000000604482015260640161049e565b81341115610887576000336108038434611fa3565b604051600081818185875af1925050503d806000811461083f576040519150601f19603f3d011682016040523d82523d6000602084013e610844565b606091505b50509050806108855760405162461bcd60e51b815260206004820152600d60248201526c1c99599d5b990819985a5b1959609a1b604482015260640161049e565b505b6040805185815260208101849052869133917f5a3358a3d27a5373c0df2604662088d37894d56b7cfd27f315770440f4e0d919910160405180910390a35050506108d16001600455565b5050565b6001600160a01b0385163314806108f157506108f185336103a9565b61090d5760405162461bcd60e51b815260040161049e90611fb6565b61091a8585858585611137565b5050505050565b61092961130d565b610931611367565b565b606081518351146109985760405162461bcd60e51b815260206004820152602960248201527f455243313135353a206163636f756e747320616e6420696473206c656e677468604482015268040dad2e6dac2e8c6d60bb1b606482015260840161049e565b600083516001600160401b038111156109b3576109b3611a10565b6040519080825280602002602001820160405280156109dc578160200160208202803683370190505b50905060005b8451811015610a4c57610a27858281518110610a0057610a00612004565b6020026020010151858381518110610a1a57610a1a612004565b6020026020010151610437565b828281518110610a3957610a39612004565b60209081029190910101526001016109e2565b509392505050565b610a5c61130d565b60008581526006602052604090206004015460ff1615610aac5760405162461bcd60e51b815260206004820152600b60248201526a64726f702065786973747360a81b604482015260640161049e565b60008311610ae75760405162461bcd60e51b81526020600482015260086024820152670737570706c793e360c41b604482015260640161049e565b6040518060a001604052808581526020018481526020016000815260200183838080601f01602080910402602001604051908101604052809392919081815260200183838082843760009201829052509385525050600160209384018190528983526006845260409283902085518155938501519084015550820151600282015560608201516003820190610b7c9082612066565b50608091909101516004909101805460ff191691151591909117905560405185907f2fbef7c175772dae4094c1147abc0758a312b53d5415456a2b929e33cf3c09f690610bd0908790879087908790612124565b60405180910390a25050505050565b600660205260009081526040902080546001820154600283015460038401805493949293919291610c0f90611f29565b80601f0160208091040260200160405190810160405280929190818152602001828054610c3b90611f29565b8015610c885780601f10610c5d57610100808354040283529160200191610c88565b820191906000526020600020905b815481529060010190602001808311610c6b57829003601f168201915b5050506004909301549192505060ff1685565b6000818152600660205260408120600401548190819060609060ff16610cd35760405162461bcd60e51b815260040161049e90611f08565b6000600660008781526020019081526020016000206040518060a0016040529081600082015481526020016001820154815260200160028201548152602001600382018054610d2190611f29565b80601f0160208091040260200160405190810160405280929190818152602001828054610d4d90611f29565b8015610d9a5780601f10610d6f57610100808354040283529160200191610d9a565b820191906000526020600020905b815481529060010190602001808311610d7d57829003601f168201915b50505091835250506004919091015460ff16151560209182015281519082015160408301516060909301519199909850919650945092505050565b610ddd61130d565b61093160006113b9565b610def61130d565b61093161140b565b60008181526006602052604081206004015460ff16610e285760405162461bcd60e51b815260040161049e90611f08565b600082815260066020526040902060028101546001909101546104ca9190611fa3565b6108d1338383611448565b610e5e61130d565b6001600160a01b038116610ea45760405162461bcd60e51b815260206004820152600d60248201526c7a65726f20747265617375727960981b604482015260640161049e565b600780546001600160a01b0319166001600160a01b0392909216919091179055565b6001600160a01b038516331480610ee25750610ee285336103a9565b610efe5760405162461bcd60e51b815260040161049e90611fb6565b61091a8585858585611528565b610f1361130d565b6001600160a01b038116610f785760405162461bcd60e51b815260206004820152602660248201527f4f776e61626c653a206e6577206f776e657220697320746865207a65726f206160448201526564647265737360d01b606482015260840161049e565b610f81816113b9565b50565b600260045403610fd65760405162461bcd60e51b815260206004820152601f60248201527f5265656e7472616e637947756172643a207265656e7472616e742063616c6c00604482015260640161049e565b6002600455565b60055460ff16156109315760405162461bcd60e51b815260206004820152601060248201526f14185d5cd8589b194e881c185d5cd95960821b604482015260640161049e565b6001600160a01b0384166110835760405162461bcd60e51b815260206004820152602160248201527f455243313135353a206d696e7420746f20746865207a65726f206164647265736044820152607360f81b606482015260840161049e565b33600061108f85611652565b9050600061109c85611652565b90506000868152602081815260408083206001600160a01b038b168452909152812080548792906110ce908490611f79565b909155505060408051878152602081018790526001600160a01b03808a1692600092918716917fc3d58168c5ae7397731d063d5bbf3d657854427343f4c083240f7aacaa2d0f62910160405180910390a461112e8360008989898961169d565b50505050505050565b81518351146111995760405162461bcd60e51b815260206004820152602860248201527f455243313135353a2069647320616e6420616d6f756e7473206c656e677468206044820152670dad2e6dac2e8c6d60c31b606482015260840161049e565b6001600160a01b0384166111bf5760405162461bcd60e51b815260040161049e90612161565b3360005b845181101561129f5760008582815181106111e0576111e0612004565b6020026020010151905060008583815181106111fe576111fe612004565b602090810291909101810151600084815280835260408082206001600160a01b038e16835290935291909120549091508181101561124e5760405162461bcd60e51b815260040161049e906121a6565b6000838152602081815260408083206001600160a01b038e8116855292528083208585039055908b1682528120805484929061128b908490611f79565b9091555050600190930192506111c3915050565b50846001600160a01b0316866001600160a01b0316826001600160a01b03167f4a39dc06d4c0dbc64b70af90fd698a233a518aa5d07e595d983b8c0526c8f7fb87876040516112ef9291906121f0565b60405180910390a46113058187878787876117f8565b505050505050565b6003546001600160a01b031633146109315760405162461bcd60e51b815260206004820181905260248201527f4f776e61626c653a2063616c6c6572206973206e6f7420746865206f776e6572604482015260640161049e565b61136f6118b3565b6005805460ff191690557f5db9ee0a495bf2e6ff9c91a7834c1ba4fdd244a5e8aa4e537bd38aeae4b073aa335b6040516001600160a01b03909116815260200160405180910390a1565b600380546001600160a01b038381166001600160a01b0319831681179093556040519116919082907f8be0079c531659141344cd1fd0a4f28419497f9722a3daafe3b4186f6b6457e090600090a35050565b611413610fdd565b6005805460ff191660011790557f62e78cea01bee320cd4e420270b5ea74000d11b0c9f74754ebdbfc544b05a25861139c3390565b816001600160a01b0316836001600160a01b0316036114bb5760405162461bcd60e51b815260206004820152602960248201527f455243313135353a2073657474696e6720617070726f76616c20737461747573604482015268103337b91039b2b63360b91b606482015260840161049e565b6001600160a01b03838116600081815260016020908152604080832094871680845294825291829020805460ff191686151590811790915591519182527f17307eab39ab6107e8899845ad3d59bd9653f200f220920489ca2b5937696c31910160405180910390a3505050565b6001600160a01b03841661154e5760405162461bcd60e51b815260040161049e90612161565b33600061155a85611652565b9050600061156785611652565b90506000868152602081815260408083206001600160a01b038c168452909152902054858110156115aa5760405162461bcd60e51b815260040161049e906121a6565b6000878152602081815260408083206001600160a01b038d8116855292528083208985039055908a168252812080548892906115e7908490611f79565b909155505060408051888152602081018890526001600160a01b03808b16928c821692918816917fc3d58168c5ae7397731d063d5bbf3d657854427343f4c083240f7aacaa2d0f62910160405180910390a4611647848a8a8a8a8a61169d565b505050505050505050565b6040805160018082528183019092526060916000919060208083019080368337019050509050828160008151811061168c5761168c612004565b602090810291909101015292915050565b6001600160a01b0384163b156113055760405163f23a6e6160e01b81526001600160a01b0385169063f23a6e61906116e1908990899088908890889060040161221e565b6020604051808303816000875af192505050801561171c575060408051601f3d908101601f1916820190925261171991810190612263565b60015b6117c857611728612280565b806308c379a003611761575061173c61229c565b806117475750611763565b8060405162461bcd60e51b815260040161049e91906119db565b505b60405162461bcd60e51b815260206004820152603460248201527f455243313135353a207472616e7366657220746f206e6f6e2d455243313135356044820152732932b1b2b4bb32b91034b6b83632b6b2b73a32b960611b606482015260840161049e565b6001600160e01b0319811663f23a6e6160e01b1461112e5760405162461bcd60e51b815260040161049e90612317565b6001600160a01b0384163b156113055760405163bc197c8160e01b81526001600160a01b0385169063bc197c819061183c908990899088908890889060040161235f565b6020604051808303816000875af1925050508015611877575060408051601f3d908101601f1916820190925261187491810190612263565b60015b61188357611728612280565b6001600160e01b0319811663bc197c8160e01b1461112e5760405162461bcd60e51b815260040161049e90612317565b60055460ff166109315760405162461bcd60e51b815260206004820152601460248201527314185d5cd8589b194e881b9bdd081c185d5cd95960621b604482015260640161049e565b80356001600160a01b038116811461191357600080fd5b919050565b6000806040838503121561192b57600080fd5b611934836118fc565b946020939093013593505050565b6001600160e01b031981168114610f8157600080fd5b60006020828403121561196a57600080fd5b813561197581611942565b9392505050565b60006020828403121561198e57600080fd5b5035919050565b6000815180845260005b818110156119bb5760208185018101518683018201520161199f565b506000602082860101526020601f19601f83011685010191505092915050565b6020815260006119756020830184611995565b60008060408385031215611a0157600080fd5b50508035926020909101359150565b634e487b7160e01b600052604160045260246000fd5b601f8201601f191681016001600160401b0381118282101715611a4b57611a4b611a10565b6040525050565b60006001600160401b03821115611a6b57611a6b611a10565b5060051b60200190565b600082601f830112611a8657600080fd5b8135611a9181611a52565b604051611a9e8282611a26565b80915082815260208101915060208360051b860101925085831115611ac257600080fd5b602085015b83811015611adf578035835260209283019201611ac7565b5095945050505050565b600082601f830112611afa57600080fd5b81356001600160401b03811115611b1357611b13611a10565b604051611b2a601f8301601f191660200182611a26565b818152846020838601011115611b3f57600080fd5b816020850160208301376000918101602001919091529392505050565b600080600080600060a08688031215611b7457600080fd5b611b7d866118fc565b9450611b8b602087016118fc565b935060408601356001600160401b03811115611ba657600080fd5b611bb288828901611a75565b93505060608601356001600160401b03811115611bce57600080fd5b611bda88828901611a75565b92505060808601356001600160401b03811115611bf657600080fd5b611c0288828901611ae9565b9150509295509295909350565b60008060408385031215611c2257600080fd5b82356001600160401b03811115611c3857600080fd5b8301601f81018513611c4957600080fd5b8035611c5481611a52565b604051611c618282611a26565b80915082815260208101915060208360051b850101925087831115611c8557600080fd5b6020840193505b82841015611cae57611c9d846118fc565b825260209384019390910190611c8c565b945050505060208301356001600160401b03811115611ccc57600080fd5b611cd885828601611a75565b9150509250929050565b600081518084526020840193506020830160005b82811015611d14578151865260209586019590910190600101611cf6565b5093949350505050565b6020815260006119756020830184611ce2565b600080600080600060808688031215611d4957600080fd5b85359450602086013593506040860135925060608601356001600160401b03811115611d7457600080fd5b8601601f81018813611d8557600080fd5b80356001600160401b03811115611d9b57600080fd5b886020828401011115611dad57600080fd5b959894975092955050506020019190565b85815284602082015283604082015260a060608201526000611de360a0830185611995565b905082151560808301529695505050505050565b848152836020820152826040820152608060608201526000611e1c6080830184611995565b9695505050505050565b60008060408385031215611e3957600080fd5b611e42836118fc565b915060208301358015158114611e5757600080fd5b809150509250929050565b60008060408385031215611e7557600080fd5b611e7e836118fc565b9150611e8c602084016118fc565b90509250929050565b600060208284031215611ea757600080fd5b611975826118fc565b600080600080600060a08688031215611ec857600080fd5b611ed1866118fc565b9450611edf602087016118fc565b9350604086013592506060860135915060808601356001600160401b03811115611bf657600080fd5b60208082526007908201526606e6f2064726f760cc1b604082015260600190565b600181811c90821680611f3d57607f821691505b602082108103611f5d57634e487b7160e01b600052602260045260246000fd5b50919050565b634e487b7160e01b600052601160045260246000fd5b808201808211156104ca576104ca611f63565b80820281158282048414176104ca576104ca611f63565b818103818111156104ca576104ca611f63565b6020808252602e908201527f455243313135353a2063616c6c6572206973206e6f7420746f6b656e206f776e60408201526d195c881bdc88185c1c1c9bdd995960921b606082015260800190565b634e487b7160e01b600052603260045260246000fd5b601f82111561206157806000526020600020601f840160051c810160208510156120415750805b601f840160051c820191505b8181101561091a576000815560010161204d565b505050565b81516001600160401b0381111561207f5761207f611a10565b6120938161208d8454611f29565b8461201a565b6020601f8211600181146120c757600083156120af5750848201515b600019600385901b1c1916600184901b17845561091a565b600084815260208120601f198516915b828110156120f757878501518255602094850194600190920191016120d7565b50848210156121155786840151600019600387901b60f8161c191681555b50505050600190811b01905550565b84815283602082015260606040820152816060820152818360808301376000818301608090810191909152601f909201601f191601019392505050565b60208082526025908201527f455243313135353a207472616e7366657220746f20746865207a65726f206164604082015264647265737360d81b606082015260800190565b6020808252602a908201527f455243313135353a20696e73756666696369656e742062616c616e636520666f60408201526939103a3930b739b332b960b11b606082015260800190565b6040815260006122036040830185611ce2565b82810360208401526122158185611ce2565b95945050505050565b6001600160a01b03868116825285166020820152604081018490526060810183905260a06080820181905260009061225890830184611995565b979650505050505050565b60006020828403121561227557600080fd5b815161197581611942565b600060033d11156122995760046000803e5060005160e01c5b90565b600060443d10156122aa5790565b6040513d600319016004823e80513d60248201116001600160401b03821117156122d357505090565b80820180516001600160401b038111156122ee575050505090565b3d8401600319018282016020011115612308575050505090565b610a4c60208285010185611a26565b60208082526028908201527f455243313135353a204552433131353552656365697665722072656a656374656040820152676420746f6b656e7360c01b606082015260800190565b6001600160a01b0386811682528516602082015260a06040820181905260009061238b90830186611ce2565b828103606084015261239d8186611ce2565b905082810360808401526123b18185611995565b9897505050505050505056fea2646970667358221220f27eddac24e4c74fa96b87c0fc94202597d9021e0467f213e4e390642cbce4df64736f6c634300081c0033",
  "linkReferences": {},
  "deployedLinkReferences": {}
}