{
  "_format": "hh-sol-artifact-1",
  "contractName": "MememintERC1155",
  "sourceName": "contracts/MememintERC1155.sol",
  "abi": [
    {
      "inputs": [
        {
          "internalType": "address",
          "name": "_treasury",
          "type": "address"
        }
      ],
      "stateMutability": "nonpayable",
      "type": "constructor"
    },
    {
      "anonymous": false,
      "inputs": [
        {
          "indexed": true,
          "internalType": "address",
          "name": "account",
          "type": "address"
        },
        {
          "indexed": true,
          "internalType": "address",
          "name": "operator",
          "type": "address"
        },
        {
          "indexed": false,
          "internalType": "bool",
          "name": "approved",
          "type": "bool"
        }
      ],
      "name": "ApprovalForAll",
      "type": "event"
    },
    {
      "anonymous": false,
      "inputs": [
        {
          "indexed": true,
          "internalType": "uint256",
          "name": "id",
          "type": "uint256"
        },
        {
          "indexed": false,
          "internalType": "uint256",
          "name": "priceWei",
          "type": "uint256"
        },
        {
          "indexed": false,
          "internalType": "uint256",
          "name": "supply",
          "type": "uint256"
        },
        {
          "indexed": false,
          "internalType": "string",
          "name": "uri",
          "type": "string"
        }
      ],
      "name": "DropCreated",
      "type": "event"
    },
    {
      "anonymous": false,
      "inputs": [
        {
          "indexed": true,
          "internalType": "address",
          "name": "buyer",
          "type": "address"
        },
        {
          "indexed": true,
          "internalType": "uint256",
          "name": "id",
          "type": "uint256"
        },
        {
          "indexed": false,
          "internalType": "uint256",
          "name": "amount",
          "type": "uint256"
        },
        {
          "indexed": false,
          "internalType": "uint256",
          "name": "paid",
          "type": "uint256"
        }
      ],
      "name": "Minted",
      "type": "event"
    },
    {
      "anonymous": false,
      "inputs": [
        {
          "indexed": true,
          "internalType": "address",
          "name": "previousOwner",
          "type": "address"
        },
        {
          "indexed": true,
          "internalType": "address",
          "name": "newOwner",
          "type": "address"
        }
      ],
      "name": "OwnershipTransferred",
      "type": "event"
    },
    {
      "anonymous": false,
      "inputs": [
        {
          "indexed": false,
          "internalType": "address",
          "name": "account",
          "type": "address"
        }
      ],
      "name": "Paused",
      "type": "event"
    },
    {
      "anonymous": false,
      "inputs": [
        {
          "indexed": true,
          "internalType": "address",
          "name": "operator",
          "type": "address"
        },
        {
          "indexed": true,
          "internalType": "address",
          "name": "from",
          "type": "address"
        },
        {
          "indexed": true,
          "internalType": "address",
          "name": "to",
          "type": "address"
        },
        {
          "indexed": false,
          "internalType": "uint256[]",
          "name": "ids",
          "type": "uint256[]"
        },
        {
          "indexed": false,
          "internalType": "uint256[]",
          "name": "values",
          "type": "uint256[]"
        }
      ],
      "name": "TransferBatch",
      "type": "event"
    },
    {
      "anonymous": false,
      "inputs": [
        {
          "indexed": true,
          "internalType": "address",
          "name": "operator",
          "type": "address"
        },
        {
          "indexed": true,
          "internalType": "address",
          "name": "from",
          "type": "address"
        },
        {
          "indexed": true,
          "internalType": "address",
          "name": "to",
          "type": "address"
        },
        {
          "indexed": false,
          "internalType": "uint256",
          "name": "id",
          "type": "uint256"
        },
        {
          "indexed": false,
          "internalType": "uint256",
          "name": "value",
          "type": "uint256"
        }
      ],
      "name": "TransferSingle",
      "type": "event"
    },
    {
      "anonymous": false,
      "inputs": [
        {
          "indexed": false,
          "internalType": "string",
          "name": "value",
          "type": "string"
        },
        {
          "indexed": true,
          "internalType": "uint256",
          "name": "id",
          "type": "uint256"
        }
      ],
      "name": "URI",
      "type": "event"
    },
    {
      "anonymous": false,
      "inputs": [
        {
          "indexed": false,
          "internalType": "address",
          "name": "account",
          "type": "address"
        }
      ],
      "name": "Unpaused",
      "type": "event"
    },
    {
      "inputs": [
        {
          "internalType": "address",
          "name": "account",
          "type": "address"
        },
        {
          "internalType": "uint256",
          "name": "id",
          "type": "uint256"
        }
      ],
      "name": "balanceOf",
      "outputs": [
        {
          "internalType": "uint256",
          "name": "",
          "type": "uint256"
        }
      ],
      "stateMutability": "view",
      "type": "function"
    },
    {
      "inputs": [
        {
          "internalType": "address[]",
          "name": "accounts",
          "type": "address[]"
        },
        {
          "internalType": "uint256[]",
          "name": "ids",
          "type": "uint256[]"
        }
      ],
      "name": "balanceOfBatch",
      "outputs": [
        {
          "internalType": "uint256[]",
          "name": "",
          "type": "uint256[]"
        }
      ],
      "stateMutability": "view",
      "type": "function"
    },
    {
      "inputs": [
        {
          "internalType": "uint256",
          "name": "id",
          "type": "uint256"
        },
        {
          "internalType": "uint256",
          "name": "priceWei",
          "type": "uint256"
        },
        {
          "internalType": "uint256",
          "name": "supply",
          "type": "uint256"
        },
        {
          "internalType": "string",
          "name": "uri_",
          "type": "string"
        }
      ],
      "name": "createDrop",
      "outputs": [],
      "stateMutability": "nonpayable",
      "type": "function"
    },
    {
      "inputs": [
        {
          "internalType": "uint256",
          "name": "",
          "type": "uint256"
        }
      ],
      "name": "drops",
      "outputs": [
        {
          "internalType": "uint256",
          "name": "priceWei",
          "type": "uint256"
        },
        {
          "internalType": "uint256",
          "name": "supply",
          "type": "uint256"
        },
        {
          "internalType": "uint256",
          "name": "minted",
          "type": "uint256"
        },
        {
          "internalType": "string",
          "name": "uri",
          "type": "string"
        },
        {
          "internalType": "bool",
          "name": "exists",
          "type": "bool"
        }
      ],
      "stateMutability": "view",
      "type": "function"
    },
    {
      "inputs": [
        {
          "internalType": "uint256",
          "name": "id",
          "type": "uint256"
        }
      ],
      "name": "getDrop",
      "outputs": [
        {
          "internalType": "uint256",
          "name": "priceWei",
          "type": "uint256"
        },
        {
          "internalType": "uint256",
          "name": "supply",
          "type": "uint256"
        },
        {
          "internalType": "uint256",
          "name": "minted",
          "type": "uint256"
        },
        {
          "internalType": "string",
          "name": "metadataUri",
          "type": "string"
        }
      ],
      "stateMutability": "view",
      "type": "function"
    },
    {
      "inputs": [
        {
          "internalType": "uint256",
          "name": "id",
          "type": "uint256"
        }
      ],
      "name": "getRemainingSupply",
      "outputs": [
        {
          "internalType": "uint256",
          "name": "",
          "type": "uint256"
        }
      ],
      "stateMutability": "view",
      "type": "function"
    },
    {
      "inputs": [
        {
          "internalType": "address",
          "name": "account",
          "type": "address"
        },
        {
          "internalType": "address",
          "name": "operator",
          "type": "address"
        }
      ],
      "name": "isApprovedForAll",
      "outputs": [
        {
          "internalType": "bool",
          "name": "",
          "type": "bool"
        }
      ],
      "stateMutability": "view",
      "type": "function"
    },
    {
      "inputs": [
        {
          "internalType": "uint256",
          "name": "id",
          "type": "uint256"
        },
        {
          "internalType": "uint256",
          "name": "amount",
          "type": "uint256"
        }
      ],
      "name": "mint",
      "outputs": [],
      "stateMutability": "payable",
      "type": "function"
    },
    {
      "inputs": [],
      "name": "owner",
      "outputs": [
        {
          "internalType": "address",
          "name": "",
          "type": "address"
        }
      ],
      "stateMutability": "view",
      "type": "function"
    },
    {
      "inputs": [],
      "name": "pause",
      "outputs": [],
      "stateMutability": "nonpayable",
      "type": "function"
    },
    {
      "inputs": [],
      "name": "paused",
      "outputs": [
        {
          "internalType": "bool",
          "name": "",
          "type": "bool"
        }
      ],
      "stateMutability": "view",
      "type": "function"
    },
    {
      "inputs": [],
      "name": "renounceOwnership",
      "outputs": [],
      "stateMutability": "nonpayable",
      "type": "function"
    },
    {
      "inputs": [
        {
          "internalType": "address",
          "name": "from",
          "type": "address"
        },
        {
          "internalType": "address",
          "name": "to",
          "type": "address"
        },
        {
          "internalType": "uint256[]",
          "name": "ids",
          "type": "uint256[]"
        },
        {
          "internalType": "uint256[]",
          "name": "amounts",
          "type": "uint256[]"
        },
        {
          "internalType": "bytes",
          "name": "data",
          "type": "bytes"
        }
      ],
      "name": "safeBatchTransferFrom",
      "outputs": [],
      "stateMutability": "nonpayable",
      "type": "function"
    },
    {
      "inputs": [
        {
          "internalType": "address",
          "name": "from",
          "type": "address"
        },
        {
          "internalType": "address",
          "name": "to",
          "type": "address"
        },
        {
          "internalType": "uint256",
          "name": "id",
          "type": "uint256"
        },
        {
          "internalType": "uint256",
          "name": "amount",
          "type": "uint256"
        },
        {
          "internalType": "bytes",
          "name": "data",
          "type": "bytes"
        }
      ],
      "name": "safeTransferFrom",
      "outputs": [],
      "stateMutability": "nonpayable",
      "type": "function"
    },
    {
      "inputs": [
        {
          "internalType": "address",
          "name": "operator",
          "type": "address"
        },
        {
          "internalType": "bool",
          "name": "approved",
          "type": "bool"
        }
      ],
      "name": "setApprovalForAll",
      "outputs": [],
      "stateMutability": "nonpayable",
      "type": "function"
    },
    {
      "inputs": [
        {
          "internalType": "address",
          "name": "_treasury",
          "type": "address"
        }
      ],
      "name": "setTreasury",
      "outputs": [],
      "stateMutability": "nonpayable",
      "type": "function"
    },
    {
      "inputs": [
        {
          "internalType": "bytes4",
          "name": "interfaceId",
          "type": "bytes4"
        }
      ],
      "name": "supportsInterface",
      "outputs": [
        {
          "internalType": "bool",
          "name": "",
          "type": "bool"
        }
      ],
      "stateMutability": "view",
      "type": "function"
    },
    {
      "inputs": [
        {
          "internalType": "address",
          "name": "newOwner",
          "type": "address"
        }
      ],
      "name": "transferOwnership",
      "outputs": [],
      "stateMutability": "nonpayable",
      "type": "function"
    },
    {
      "inputs": [],
      "name": "treasury",
      "outputs": [
        {
          "internalType": "address",
          "name": "",
          "type": "address"
        }
      ],
      "stateMutability": "view",
      "type": "function"
    },
    {
      "inputs": [],
      "name": "unpause",
      "outputs": [],
      "stateMutability": "nonpayable",
      "type": "function"
    },
    {
      "inputs": [
        {
          "internalType": "uint256",
          "name": "id",
          "type": "uint256"
        },
        {
          "internalType": "uint256",
          "name": "newPriceWei",
          "type": "uint256"
        }
      ],
      "name": "updateDropPrice",
      "outputs": [],
      "stateMutability": "nonpayable",
      "type": "function"
    },
    {
      "inputs": [
        {
          "internalType": "uint256",
          "name": "id",
          "type": "uint256"
        }
      ],
      "name": "uri",
      "outputs": [
        {
          "internalType": "string",
          "name": "",
          "type": "string"
        }
      ],
      "stateMutability": "view",
      "type": "function"
    }
  ],
  "bytecode": "0x608060405234801561001057600080fd5b5060405161283e38038061283e83398101604081905261002f91610131565b604080516020810190915260008152610047816100cf565b50610051336100df565b60016004556005805460ff191690556001600160a01b0381166100aa5760405162461bcd60e51b815260206004820152600d60248201526c7a65726f20747265617375727960981b604482015260640160405180910390fd5b600780546001600160a01b0319166001600160a01b03929092169190911790556102be565b60026100db8282610200565b5050565b600380546001600160a01b038381166001600160a01b0319831681179093556040519116919082907f8be0079c531659141344cd1fd0a4f28419497f9722a3daafe3b4186f6b6457e090600090a35050565b60006020828403121561014357600080fd5b81516001600160a01b038116811461015a57600080fd5b9392505050565b634e487b7160e01b600052604160045260246000fd5b600181811c9082168061018b57607f821691505b6020821081036101ab57634e487b7160e01b600052602260045260246000fd5b50919050565b601f8211156101fb57806000526020600020601f840160051c810160208510156101d85750805b601f840160051c820191505b818110156101f857600081556001016101e4565b50505b505050565b81516001600160401b0381111561021957610219610161565b61022d816102278454610177565b846101b1565b6020601f82116001811461026157600083156102495750848201515b600019600385901b1c1916600184901b1784556101f8565b600084815260208120601f198516915b828110156102915787850151825560209485019460019092019101610271565b50848210156102af5786840151600019600387901b60f8161c191681555b50505050600190811b01905550565b612571806102cd6000396000f3fe6080604052600436106101345760003560e01c806361d027b3116100ab5780638da5cb5b1161006f5780638da5cb5b1461037b578063a22cb46514610399578063e985e9c5146103b9578063f0f4426014610402578063f242432a14610422578063f2fde38b1461044257600080fd5b806361d027b3146102c95780636787d44914610301578063715018a6146103315780638456cb59146103465780638c858a141461035b57600080fd5b80632eb2c2d6116100fd5780632eb2c2d6146101fe5780633f4ba83a1461021e5780634e1273f4146102335780635170a262146102605780635c975abb146102805780635eb399681461029857600080fd5b8062fdd58e1461013957806301ffc9a71461016c5780630e89341c1461019c5780631b2ef1ca146101c95780631d090a32146101de575b600080fd5b34801561014557600080fd5b506101596101543660046119fc565b610462565b6040519081526020015b60405180910390f35b34801561017857600080fd5b5061018c610187366004611a3c565b6104fb565b6040519015158152602001610163565b3480156101a857600080fd5b506101bc6101b7366004611a60565b61054b565b6040516101639190611abf565b6101dc6101d7366004611ad2565b610620565b005b3480156101ea57600080fd5b506101dc6101f9366004611ad2565b610900565b34801561020a57600080fd5b506101dc610219366004611c40565b6109b9565b34801561022a57600080fd5b506101dc610a05565b34801561023f57600080fd5b5061025361024e366004611cf3565b610a17565b6040516101639190611e02565b34801561026c57600080fd5b506101dc61027b366004611e15565b610b38565b34801561028c57600080fd5b5060055460ff1661018c565b3480156102a457600080fd5b506102b86102b3366004611a60565b610cc3565b604051610163959493929190611ea2565b3480156102d557600080fd5b506007546102e9906001600160a01b031681565b6040516001600160a01b039091168152602001610163565b34801561030d57600080fd5b5061032161031c366004611a60565b610d7f565b6040516101639493929190611edb565b34801561033d57600080fd5b506101dc610eb9565b34801561035257600080fd5b506101dc610ecb565b34801561036757600080fd5b50610159610376366004611a60565b610edb565b34801561038757600080fd5b506003546001600160a01b03166102e9565b3480156103a557600080fd5b506101dc6103b4366004611f0a565b610f2f565b3480156103c557600080fd5b5061018c6103d4366004611f46565b6001600160a01b03918216600090815260016020908152604080832093909416825291909152205460ff1690565b34801561040e57600080fd5b506101dc61041d366004611f79565b610f3a565b34801561042e57600080fd5b506101dc61043d366004611f94565b610faa565b34801561044e57600080fd5b506101dc61045d366004611f79565b610fef565b60006001600160a01b0383166104d25760405162461bcd60e51b815260206004820152602a60248201527f455243313135353a2061646472657373207a65726f206973206e6f742061207660448201526930b634b21037bbb732b960b11b60648201526084015b60405180910390fd5b506000818152602081815260408083206001600160a01b03861684529091529020545b92915050565b60006001600160e01b03198216636cdb3d1360e11b148061052c57506001600160e01b031982166303a24d0760e21b145b806104f557506301ffc9a760e01b6001600160e01b03198316146104f5565b60008181526006602052604090206004015460609060ff1661057f5760405162461bcd60e51b81526004016104c990611fec565b6000828152600660205260409020600301805461059b9061200d565b80601f01602080910402602001604051908101604052809291908181526020018280546105c79061200d565b80156106145780601f106105e957610100808354040283529160200191610614565b820191906000526020600020905b8154815290600101906020018083116105f757829003601f168201915b50505050509050919050565b610628611068565b6106306110c1565b6000828152600660205260409020600481015460ff166106625760405162461bcd60e51b81526004016104c990611fec565b6000821161069d5760405162461bcd60e51b81526020600482015260086024820152670616d6f756e743e360c41b60448201526064016104c9565b80600101548282600201546106b2919061205d565b11156106eb5760405162461bcd60e51b81526020600482015260086024820152671cdbdb19081bdd5d60c21b60448201526064016104c9565b80546000906106fb908490612070565b9050803410156107405760405162461bcd60e51b815260206004820152601060248201526f0d2dce6eaccccd2c6d2cadce8408aa8960831b60448201526064016104c9565b82826002016000828254610754919061205d565b9250508190555061077633858560405180602001604052806000815250611107565b6007546040516000916001600160a01b03169083908381818185875af1925050503d80600081146107c3576040519150601f19603f3d011682016040523d82523d6000602084013e6107c8565b606091505b50509050806108195760405162461bcd60e51b815260206004820152601860248201527f7472656173757279207472616e73666572206661696c6564000000000000000060448201526064016104c9565b813411156108b25760003361082e8434612087565b604051600081818185875af1925050503d806000811461086a576040519150601f19603f3d011682016040523d82523d6000602084013e61086f565b606091505b50509050806108b05760405162461bcd60e51b815260206004820152600d60248201526c1c99599d5b990819985a5b1959609a1b60448201526064016104c9565b505b6040805185815260208101849052869133917f5a3358a3d27a5373c0df2604662088d37894d56b7cfd27f315770440f4e0d919910160405180910390a35050506108fc6001600455565b5050565b61090861121b565b60008281526006602052604090206004015460ff1661095f5760405162461bcd60e51b8152602060048201526013602482015272191c9bdc08191bd95cc81b9bdd08195e1a5cdd606a1b60448201526064016104c9565b600082815260066020526040908190208281556001810154915184927f2fbef7c175772dae4094c1147abc0758a312b53d5415456a2b929e33cf3c09f6926109ad928692916003019061209a565b60405180910390a25050565b6001600160a01b0385163314806109d557506109d585336103d4565b6109f15760405162461bcd60e51b81526004016104c990612134565b6109fe8585858585611275565b5050505050565b610a0d61121b565b610a1561144b565b565b60608151835114610a7c5760405162461bcd60e51b815260206004820152602960248201527f455243313135353a206163636f756e747320616e6420696473206c656e677468604482015268040dad2e6dac2e8c6d60bb1b60648201526084016104c9565b600083516001600160401b03811115610a9757610a97611af4565b604051908082528060200260200182016040528015610ac0578160200160208202803683370190505b50905060005b8451811015610b3057610b0b858281518110610ae457610ae4612182565b6020026020010151858381518110610afe57610afe612182565b6020026020010151610462565b828281518110610b1d57610b1d612182565b6020908102919091010152600101610ac6565b509392505050565b610b4061121b565b60008581526006602052604090206004015460ff1615610b905760405162461bcd60e51b815260206004820152600b60248201526a64726f702065786973747360a81b60448201526064016104c9565b60008311610bcb5760405162461bcd60e51b81526020600482015260086024820152670737570706c793e360c41b60448201526064016104c9565b6040518060a001604052808581526020018481526020016000815260200183838080601f01602080910402602001604051908101604052809392919081815260200183838082843760009201829052509385525050600160209384018190528983526006845260409283902085518155938501519084015550820151600282015560608201516003820190610c6090826121e4565b50608091909101516004909101805460ff191691151591909117905560405185907f2fbef7c175772dae4094c1147abc0758a312b53d5415456a2b929e33cf3c09f690610cb49087908790879087906122a2565b60405180910390a25050505050565b600660205260009081526040902080546001820154600283015460038401805493949293919291610cf39061200d565b80601f0160208091040260200160405190810160405280929190818152602001828054610d1f9061200d565b8015610d6c5780601f10610d4157610100808354040283529160200191610d6c565b820191906000526020600020905b815481529060010190602001808311610d4f57829003601f168201915b5050506004909301549192505060ff1685565b6000818152600660205260408120600401548190819060609060ff16610db75760405162461bcd60e51b81526004016104c990611fec565b6000600660008781526020019081526020016000206040518060a0016040529081600082015481526020016001820154815260200160028201548152602001600382018054610e059061200d565b80601f0160208091040260200160405190810160405280929190818152602001828054610e319061200d565b8015610e7e5780601f10610e5357610100808354040283529160200191610e7e565b820191906000526020600020905b815481529060010190602001808311610e6157829003601f168201915b50505091835250506004919091015460ff16151560209182015281519082015160408301516060909301519199909850919650945092505050565b610ec161121b565b610a15600061149d565b610ed361121b565b610a156114ef565b60008181526006602052604081206004015460ff16610f0c5760405162461bcd60e51b81526004016104c990611fec565b600082815260066020526040902060028101546001909101546104f59190612087565b6108fc33838361152c565b610f4261121b565b6001600160a01b038116610f885760405162461bcd60e51b815260206004820152600d60248201526c7a65726f20747265617375727960981b60448201526064016104c9565b600780546001600160a01b0319166001600160a01b0392909216919091179055565b6001600160a01b038516331480610fc65750610fc685336103d4565b610fe25760405162461bcd60e51b81526004016104c990612134565b6109fe858585858561160c565b610ff761121b565b6001600160a01b03811661105c5760405162461bcd60e51b815260206004820152602660248201527f4f776e61626c653a206e6577206f776e657220697320746865207a65726f206160448201526564647265737360d01b60648201526084016104c9565b6110658161149d565b50565b6002600454036110ba5760405162461bcd60e51b815260206004820152601f60248201527f5265656e7472616e637947756172643a207265656e7472616e742063616c6c0060448201526064016104c9565b6002600455565b60055460ff1615610a155760405162461bcd60e51b815260206004820152601060248201526f14185d5cd8589b194e881c185d5cd95960821b60448201526064016104c9565b6001600160a01b0384166111675760405162461bcd60e51b815260206004820152602160248201527f455243313135353a206d696e7420746f20746865207a65726f206164647265736044820152607360f81b60648201526084016104c9565b33600061117385611736565b9050600061118085611736565b90506000868152602081815260408083206001600160a01b038b168452909152812080548792906111b290849061205d565b909155505060408051878152602081018790526001600160a01b03808a1692600092918716917fc3d58168c5ae7397731d063d5bbf3d657854427343f4c083240f7aacaa2d0f62910160405180910390a461121283600089898989611781565b50505050505050565b6003546001600160a01b03163314610a155760405162461bcd60e51b815260206004820181905260248201527f4f776e61626c653a2063616c6c6572206973206e6f7420746865206f776e657260448201526064016104c9565b81518351146112d75760405162461bcd60e51b815260206004820152602860248201527f455243313135353a2069647320616e6420616d6f756e7473206c656e677468206044820152670dad2e6dac2e8c6d60c31b60648201526084016104c9565b6001600160a01b0384166112fd5760405162461bcd60e51b81526004016104c9906122df565b3360005b84518110156113dd57600085828151811061131e5761131e612182565b60200260200101519050600085838151811061133c5761133c612182565b602090810291909101810151600084815280835260408082206001600160a01b038e16835290935291909120549091508181101561138c5760405162461bcd60e51b81526004016104c990612324565b6000838152602081815260408083206001600160a01b038e8116855292528083208585039055908b168252812080548492906113c990849061205d565b909155505060019093019250611301915050565b50846001600160a01b0316866001600160a01b0316826001600160a01b03167f4a39dc06d4c0dbc64b70af90fd698a233a518aa5d07e595d983b8c0526c8f7fb878760405161142d92919061236e565b60405180910390a46114438187878787876118dc565b505050505050565b611453611997565b6005805460ff191690557f5db9ee0a495bf2e6ff9c91a7834c1ba4fdd244a5e8aa4e537bd38aeae4b073aa335b6040516001600160a01b03909116815260200160405180910390a1565b600380546001600160a01b038381166001600160a01b0319831681179093556040519116919082907f8be0079c531659141344cd1fd0a4f28419497f9722a3daafe3b4186f6b6457e090600090a35050565b6114f76110c1565b6005805460ff191660011790557f62e78cea01bee320cd4e420270b5ea74000d11b0c9f74754ebdbfc544b05a2586114803390565b816001600160a01b0316836001600160a01b03160361159f5760405162461bcd60e51b815260206004820152602960248201527f455243313135353a2073657474696e6720617070726f76616c20737461747573604482015268103337b91039b2b63360b91b60648201526084016104c9565b6001600160a01b03838116600081815260016020908152604080832094871680845294825291829020805460ff191686151590811790915591519182527f17307eab39ab6107e8899845ad3d59bd9653f200f220920489ca2b5937696c31910160405180910390a3505050565b6001600160a01b0384166116325760405162461bcd60e51b81526004016104c9906122df565b33600061163e85611736565b9050600061164b85611736565b90506000868152602081815260408083206001600160a01b038c1684529091529020548581101561168e5760405162461bcd60e51b81526004016104c990612324565b6000878152602081815260408083206001600160a01b038d8116855292528083208985039055908a168252812080548892906116cb90849061205d565b909155505060408051888152602081018890526001600160a01b03808b16928c821692918816917fc3d58168c5ae7397731d063d5bbf3d657854427343f4c083240f7aacaa2d0f62910160405180910390a461172b848a8a8a8a8a611781565b505050505050505050565b6040805160018082528183019092526060916000919060208083019080368337019050509050828160008151811061177057611770612182565b602090810291909101015292915050565b6001600160a01b0384163b156114435760405163f23a6e6160e01b81526001600160a01b0385169063f23a6e61906117c5908990899088908890889060040161239c565b6020604051808303816000875af1925050508015611800575060408051601f3d908101601f191682019092526117fd918101906123e1565b60015b6118ac5761180c6123fe565b806308c379a003611845575061182061241a565b8061182b5750611847565b8060405162461bcd60e51b81526004016104c99190611abf565b505b60405162461bcd60e51b815260206004820152603460248201527f455243313135353a207472616e7366657220746f206e6f6e2d455243313135356044820152732932b1b2b4bb32b91034b6b83632b6b2b73a32b960611b60648201526084016104c9565b6001600160e01b0319811663f23a6e6160e01b146112125760405162461bcd60e51b81526004016104c990612495565b6001600160a01b0384163b156114435760405163bc197c8160e01b81526001600160a01b0385169063bc197c819061192090899089908890889088906004016124dd565b6020604051808303816000875af192505050801561195b575060408051601f3d908101601f19168201909252611958918101906123e1565b60015b6119675761180c6123fe565b6001600160e01b0319811663bc197c8160e01b146112125760405162461bcd60e51b81526004016104c990612495565b60055460ff16610a155760405162461bcd60e51b815260206004820152601460248201527314185d5cd8589b194e881b9bdd081c185d5cd95960621b60448201526064016104c9565b80356001600160a01b03811681146119f757600080fd5b919050565b60008060408385031215611a0f57600080fd5b611a18836119e0565b946020939093013593505050565b6001600160e01b03198116811461106557600080fd5b600060208284031215611a4e57600080fd5b8135611a5981611a26565b9392505050565b600060208284031215611a7257600080fd5b5035919050565b6000815180845260005b81811015611a9f57602081850181015186830182015201611a83565b506000602082860101526020601f19601f83011685010191505092915050565b602081526000611a596020830184611a79565b60008060408385031215611ae557600080fd5b50508035926020909101359150565b634e487b7160e01b600052604160045260246000fd5b601f8201601f191681016001600160401b0381118282101715611b2f57611b2f611af4565b6040525050565b60006001600160401b03821115611b4f57611b4f611af4565b5060051b60200190565b600082601f830112611b6a57600080fd5b8135611b7581611b36565b604051611b828282611b0a565b80915082815260208101915060208360051b860101925085831115611ba657600080fd5b602085015b83811015611bc3578035835260209283019201611bab565b5095945050505050565b600082601f830112611bde57600080fd5b81356001600160401b03811115611bf757611bf7611af4565b604051611c0e601f8301601f191660200182611b0a565b818152846020838601011115611c2357600080fd5b816020850160208301376000918101602001919091529392505050565b600080600080600060a08688031215611c5857600080fd5b611c61866119e0565b9450611c6f602087016119e0565b935060408601356001600160401b03811115611c8a57600080fd5b611c9688828901611b59565b93505060608601356001600160401b03811115611cb257600080fd5b611cbe88828901611b59565b92505060808601356001600160401b03811115611cda57600080fd5b611ce688828901611bcd565b9150509295509295909350565b60008060408385031215611d0657600080fd5b82356001600160401b03811115611d1c57600080fd5b8301601f81018513611d2d57600080fd5b8035611d3881611b36565b604051611d458282611b0a565b80915082815260208101915060208360051b850101925087831115611d6957600080fd5b6020840193505b82841015611d9257611d81846119e0565b825260209384019390910190611d70565b945050505060208301356001600160401b03811115611db057600080fd5b611dbc85828601611b59565b9150509250929050565b600081518084526020840193506020830160005b82811015611df8578151865260209586019590910190600101611dda565b5093949350505050565b602081526000611a596020830184611dc6565b600080600080600060808688031215611e2d57600080fd5b85359450602086013593506040860135925060608601356001600160401b03811115611e5857600080fd5b8601601f81018813611e6957600080fd5b80356001600160401b03811115611e7f57600080fd5b886020828401011115611e9157600080fd5b959894975092955050506020019190565b85815284602082015283604082015260a060608201526000611ec760a0830185611a79565b905082151560808301529695505050505050565b848152836020820152826040820152608060608201526000611f006080830184611a79565b9695505050505050565b60008060408385031215611f1d57600080fd5b611f26836119e0565b915060208301358015158114611f3b57600080fd5b809150509250929050565b60008060408385031215611f5957600080fd5b611f62836119e0565b9150611f70602084016119e0565b90509250929050565b600060208284031215611f8b57600080fd5b611a59826119e0565b600080600080600060a08688031215611fac57600080fd5b611fb5866119e0565b9450611fc3602087016119e0565b9350604086013592506060860135915060808601356001600160401b03811115611cda57600080fd5b60208082526007908201526606e6f2064726f760cc1b604082015260600190565b600181811c9082168061202157607f821691505b60208210810361204157634e487b7160e01b600052602260045260246000fd5b50919050565b634e487b7160e01b600052601160045260246000fd5b808201808211156104f5576104f5612047565b80820281158282048414176104f5576104f5612047565b818103818111156104f5576104f5612047565b8381528260208201526060604082015260008083546120b88161200d565b80606086015260018216600081146120d757600181146120f357612127565b60ff1983166080870152608082151560051b8701019350612127565b86600052602060002060005b8381101561211e578154888201608001526001909101906020016120ff565b87016080019450505b5091979650505050505050565b6020808252602e908201527f455243313135353a2063616c6c6572206973206e6f7420746f6b656e206f776e60408201526d195c881bdc88185c1c1c9bdd995960921b606082015260800190565b634e487b7160e01b600052603260045260246000fd5b601f8211156121df57806000526020600020601f840160051c810160208510156121bf5750805b601f840160051c820191505b818110156109fe57600081556001016121cb565b505050565b81516001600160401b038111156121fd576121fd611af4565b6122118161220b845461200d565b84612198565b6020601f821160018114612245576000831561222d5750848201515b600019600385901b1c1916600184901b1784556109fe565b600084815260208120601f198516915b828110156122755787850151825560209485019460019092019101612255565b50848210156122935786840151600019600387901b60f8161c191681555b50505050600190811b01905550565b84815283602082015260606040820152816060820152818360808301376000818301608090810191909152601f909201601f191601019392505050565b60208082526025908201527f455243313135353a207472616e7366657220746f20746865207a65726f206164604082015264647265737360d81b606082015260800190565b6020808252602a908201527f455243313135353a20696e73756666696369656e742062616c616e636520666f60408201526939103a3930b739b332b960b11b606082015260800190565b6040815260006123816040830185611dc6565b82810360208401526123938185611dc6565b95945050505050565b6001600160a01b03868116825285166020820152604081018490526060810183905260a0608082018190526000906123d690830184611a79565b979650505050505050565b6000602082840312156123f357600080fd5b8151611a5981611a26565b600060033d11156124175760046000803e5060005160e01c5b90565b600060443d10156124285790565b6040513d600319016004823e80513d60248201116001600160401b038211171561245157505090565b80820180516001600160401b0381111561246c575050505090565b3d8401600319018282016020011115612486575050505090565b610b3060208285010185611b0a565b60208082526028908201527f455243313135353a204552433131353552656365697665722072656a656374656040820152676420746f6b656e7360c01b606082015260800190565b6001600160a01b0386811682528516602082015260a06040820181905260009061250990830186611dc6565b828103606084015261251b8186611dc6565b9050828103608084015261252f8185611a79565b9897505050505050505056fea2646970667358221220d89e056be53e0f677bc4b9db76765b7d61c49cb7bc312b62a3cddf7992bb458264736f6c634300081c0033",
  "linkReferences": {},
  "deployedLinkReferences": {}
}